{
  "_format": "hh-sol-artifact-1",
  "contractName": "DToken",
  "sourceName": "contracts/Token/DToken.sol",
  "abi": [
    {
      "inputs": [
        {
          "internalType": "contract ILendingPool",
          "name": "pool",
          "type": "address"
        },
        {
          "internalType": "address",
          "name": "underlyingAsset",
          "type": "address"
        },
        {
          "internalType": "uint8",
          "name": "dTokenDecimals",
          "type": "uint8"
        },
        {
          "internalType": "string",
          "name": "dTokenName",
          "type": "string"
        },
        {
          "internalType": "string",
          "name": "dTokenSymbol",
          "type": "string"
        }
      ],
      "stateMutability": "nonpayable",
      "type": "constructor"
    },
    {
      "anonymous": false,
      "inputs": [
        {
          "indexed": true,
          "internalType": "address",
          "name": "owner",
          "type": "address"
        },
        {
          "indexed": true,
          "internalType": "address",
          "name": "spender",
          "type": "address"
        },
        {
          "indexed": false,
          "internalType": "uint256",
          "name": "value",
          "type": "uint256"
        }
      ],
      "name": "Approval",
      "type": "event"
    },
    {
      "anonymous": false,
      "inputs": [
        {
          "indexed": true,
          "internalType": "address",
          "name": "fromUser",
          "type": "address"
        },
        {
          "indexed": true,
          "internalType": "address",
          "name": "toUser",
          "type": "address"
        },
        {
          "indexed": false,
          "internalType": "address",
          "name": "asset",
          "type": "address"
        },
        {
          "indexed": false,
          "internalType": "uint256",
          "name": "amount",
          "type": "uint256"
        }
      ],
      "name": "BorrowAllowanceDelegated",
      "type": "event"
    },
    {
      "anonymous": false,
      "inputs": [
        {
          "indexed": true,
          "internalType": "address",
          "name": "user",
          "type": "address"
        },
        {
          "indexed": false,
          "internalType": "uint256",
          "name": "amount",
          "type": "uint256"
        },
        {
          "indexed": false,
          "internalType": "uint256",
          "name": "index",
          "type": "uint256"
        }
      ],
      "name": "Burn",
      "type": "event"
    },
    {
      "anonymous": false,
      "inputs": [
        {
          "indexed": true,
          "internalType": "address",
          "name": "from",
          "type": "address"
        },
        {
          "indexed": true,
          "internalType": "address",
          "name": "onBehalfOf",
          "type": "address"
        },
        {
          "indexed": false,
          "internalType": "uint256",
          "name": "value",
          "type": "uint256"
        },
        {
          "indexed": false,
          "internalType": "uint256",
          "name": "index",
          "type": "uint256"
        }
      ],
      "name": "Mint",
      "type": "event"
    },
    {
      "anonymous": false,
      "inputs": [
        {
          "indexed": true,
          "internalType": "address",
          "name": "from",
          "type": "address"
        },
        {
          "indexed": true,
          "internalType": "address",
          "name": "to",
          "type": "address"
        },
        {
          "indexed": false,
          "internalType": "uint256",
          "name": "value",
          "type": "uint256"
        }
      ],
      "name": "Transfer",
      "type": "event"
    },
    {
      "inputs": [],
      "name": "POOL",
      "outputs": [
        {
          "internalType": "contract ILendingPool",
          "name": "",
          "type": "address"
        }
      ],
      "stateMutability": "view",
      "type": "function"
    },
    {
      "inputs": [],
      "name": "UNDERLYING_ASSET_ADDRESS",
      "outputs": [
        {
          "internalType": "address",
          "name": "",
          "type": "address"
        }
      ],
      "stateMutability": "view",
      "type": "function"
    },
    {
      "inputs": [
        {
          "internalType": "address",
          "name": "owner",
          "type": "address"
        },
        {
          "internalType": "address",
          "name": "spender",
          "type": "address"
        }
      ],
      "name": "allowance",
      "outputs": [
        {
          "internalType": "uint256",
          "name": "",
          "type": "uint256"
        }
      ],
      "stateMutability": "view",
      "type": "function"
    },
    {
      "inputs": [
        {
          "internalType": "address",
          "name": "spender",
          "type": "address"
        },
        {
          "internalType": "uint256",
          "name": "amount",
          "type": "uint256"
        }
      ],
      "name": "approve",
      "outputs": [
        {
          "internalType": "bool",
          "name": "",
          "type": "bool"
        }
      ],
      "stateMutability": "nonpayable",
      "type": "function"
    },
    {
      "inputs": [
        {
          "internalType": "address",
          "name": "delegatee",
          "type": "address"
        },
        {
          "internalType": "uint256",
          "name": "amount",
          "type": "uint256"
        }
      ],
      "name": "approveDelegation",
      "outputs": [],
      "stateMutability": "nonpayable",
      "type": "function"
    },
    {
      "inputs": [
        {
          "internalType": "address",
          "name": "user",
          "type": "address"
        }
      ],
      "name": "balanceOf",
      "outputs": [
        {
          "internalType": "uint256",
          "name": "",
          "type": "uint256"
        }
      ],
      "stateMutability": "view",
      "type": "function"
    },
    {
      "inputs": [
        {
          "internalType": "address",
          "name": "fromUser",
          "type": "address"
        },
        {
          "internalType": "address",
          "name": "toUser",
          "type": "address"
        }
      ],
      "name": "borrowAllowance",
      "outputs": [
        {
          "internalType": "uint256",
          "name": "",
          "type": "uint256"
        }
      ],
      "stateMutability": "view",
      "type": "function"
    },
    {
      "inputs": [
        {
          "internalType": "address",
          "name": "user",
          "type": "address"
        },
        {
          "internalType": "uint256",
          "name": "amount",
          "type": "uint256"
        },
        {
          "internalType": "uint256",
          "name": "index",
          "type": "uint256"
        }
      ],
      "name": "burn",
      "outputs": [],
      "stateMutability": "nonpayable",
      "type": "function"
    },
    {
      "inputs": [],
      "name": "decimals",
      "outputs": [
        {
          "internalType": "uint8",
          "name": "",
          "type": "uint8"
        }
      ],
      "stateMutability": "view",
      "type": "function"
    },
    {
      "inputs": [
        {
          "internalType": "address",
          "name": "spender",
          "type": "address"
        },
        {
          "internalType": "uint256",
          "name": "subtractedValue",
          "type": "uint256"
        }
      ],
      "name": "decreaseAllowance",
      "outputs": [
        {
          "internalType": "bool",
          "name": "",
          "type": "bool"
        }
      ],
      "stateMutability": "nonpayable",
      "type": "function"
    },
    {
      "inputs": [
        {
          "internalType": "address",
          "name": "user",
          "type": "address"
        }
      ],
      "name": "getScaledUserBalanceAndSupply",
      "outputs": [
        {
          "internalType": "uint256",
          "name": "",
          "type": "uint256"
        },
        {
          "internalType": "uint256",
          "name": "",
          "type": "uint256"
        }
      ],
      "stateMutability": "view",
      "type": "function"
    },
    {
      "inputs": [
        {
          "internalType": "address",
          "name": "spender",
          "type": "address"
        },
        {
          "internalType": "uint256",
          "name": "addedValue",
          "type": "uint256"
        }
      ],
      "name": "increaseAllowance",
      "outputs": [
        {
          "internalType": "bool",
          "name": "",
          "type": "bool"
        }
      ],
      "stateMutability": "nonpayable",
      "type": "function"
    },
    {
      "inputs": [
        {
          "internalType": "address",
          "name": "user",
          "type": "address"
        },
        {
          "internalType": "address",
          "name": "onBehalfOf",
          "type": "address"
        },
        {
          "internalType": "uint256",
          "name": "amount",
          "type": "uint256"
        },
        {
          "internalType": "uint256",
          "name": "index",
          "type": "uint256"
        }
      ],
      "name": "mint",
      "outputs": [
        {
          "internalType": "bool",
          "name": "",
          "type": "bool"
        }
      ],
      "stateMutability": "nonpayable",
      "type": "function"
    },
    {
      "inputs": [],
      "name": "name",
      "outputs": [
        {
          "internalType": "string",
          "name": "",
          "type": "string"
        }
      ],
      "stateMutability": "view",
      "type": "function"
    },
    {
      "inputs": [
        {
          "internalType": "address",
          "name": "user",
          "type": "address"
        }
      ],
      "name": "scaledBalanceOf",
      "outputs": [
        {
          "internalType": "uint256",
          "name": "",
          "type": "uint256"
        }
      ],
      "stateMutability": "view",
      "type": "function"
    },
    {
      "inputs": [],
      "name": "scaledTotalSupply",
      "outputs": [
        {
          "internalType": "uint256",
          "name": "",
          "type": "uint256"
        }
      ],
      "stateMutability": "view",
      "type": "function"
    },
    {
      "inputs": [],
      "name": "symbol",
      "outputs": [
        {
          "internalType": "string",
          "name": "",
          "type": "string"
        }
      ],
      "stateMutability": "view",
      "type": "function"
    },
    {
      "inputs": [],
      "name": "totalSupply",
      "outputs": [
        {
          "internalType": "uint256",
          "name": "",
          "type": "uint256"
        }
      ],
      "stateMutability": "view",
      "type": "function"
    },
    {
      "inputs": [
        {
          "internalType": "address",
          "name": "recipient",
          "type": "address"
        },
        {
          "internalType": "uint256",
          "name": "amount",
          "type": "uint256"
        }
      ],
      "name": "transfer",
      "outputs": [
        {
          "internalType": "bool",
          "name": "",
          "type": "bool"
        }
      ],
      "stateMutability": "nonpayable",
      "type": "function"
    },
    {
      "inputs": [
        {
          "internalType": "address",
          "name": "sender",
          "type": "address"
        },
        {
          "internalType": "address",
          "name": "recipient",
          "type": "address"
        },
        {
          "internalType": "uint256",
          "name": "amount",
          "type": "uint256"
        }
      ],
      "name": "transferFrom",
      "outputs": [
        {
          "internalType": "bool",
          "name": "",
          "type": "bool"
        }
      ],
      "stateMutability": "nonpayable",
      "type": "function"
    }
  ],
  "bytecode": "0x60806040523480156200001157600080fd5b50604051620014ca380380620014ca8339810160408190526200003491620002c8565b604080518082018252600e8082526d111150951513d2d15397d253541360921b6020808401828152855180870190965292855284015281519192916000916200008191600391906200013c565b508151620000979060049060208501906200013c565b506005805460ff191660ff9290921691909117905550620000ba90508262000113565b620000c5816200012c565b6005805460ff191660ff8516179055505060058054610100600160a81b0319166101006001600160a01b039586160217905550600680546001600160a01b03191691909216179055620003b4565b8051620001289060039060208401906200013c565b5050565b8051620001289060049060208401905b8280546200014a9062000378565b90600052602060002090601f0160209004810192826200016e5760008555620001b9565b82601f106200018957805160ff1916838001178555620001b9565b82800160010185558215620001b9579182015b82811115620001b95782518255916020019190600101906200019c565b50620001c7929150620001cb565b5090565b5b80821115620001c75760008155600101620001cc565b6001600160a01b0381168114620001f857600080fd5b50565b634e487b7160e01b600052604160045260246000fd5b600082601f8301126200022357600080fd5b81516001600160401b0380821115620002405762000240620001fb565b604051601f8301601f19908116603f011681019082821181831017156200026b576200026b620001fb565b816040528381526020925086838588010111156200028857600080fd5b600091505b83821015620002ac57858201830151818301840152908201906200028d565b83821115620002be5760008385830101525b9695505050505050565b600080600080600060a08688031215620002e157600080fd5b8551620002ee81620001e2565b60208701519095506200030181620001e2565b604087015190945060ff811681146200031957600080fd5b60608701519093506001600160401b03808211156200033757600080fd5b6200034589838a0162000211565b935060808801519150808211156200035c57600080fd5b506200036b8882890162000211565b9150509295509295909350565b600181811c908216806200038d57607f821691505b602082108103620003ae57634e487b7160e01b600052602260045260246000fd5b50919050565b61110680620003c46000396000f3fe608060405234801561001057600080fd5b50600436106100fc5760003560e01c806306fdde0314610101578063095ea7b31461011f5780630afbcdc91461014257806318160ddd1461016a5780631da24f3e1461018057806323b872dd14610193578063313ce567146101a657806339509351146101bb5780636bd76d24146101ce57806370a08231146102075780637535d2461461021a57806395d89b411461022f578063a457c2d7146101bb578063a9059cbb14610237578063b16a19de14610245578063b1bf962d1461024d578063b3f1c93d14610255578063c04a8a1014610268578063dd62ed3e1461027d578063f5298aca1461028b575b600080fd5b61010961029e565b6040516101169190610d97565b60405180910390f35b61013261012d366004610e08565b610330565b6040519015158152602001610116565b610155610150366004610e32565b610379565b60408051928352602083019190915201610116565b610172610391565b604051908152602001610116565b61017261018e366004610e32565b61041f565b6101326101a1366004610e4d565b610430565b60055460405160ff9091168152602001610116565b6101326101c9366004610e08565b610474565b6101726101dc366004610e89565b6001600160a01b03918216600090815260076020908152604080832093909416825291909152205490565b610172610215366004610e32565b6104b9565b610222610565565b6040516101169190610ebc565b610109610579565b6101326101a1366004610e08565b610222610588565b610172610597565b610132610263366004610ed0565b6105a2565b61027b610276366004610e08565b610727565b005b6101726101c9366004610e89565b61027b610299366004610f12565b610793565b6060600380546102ad90610f45565b80601f01602080910402602001604051908101604052809291908181526020018280546102d990610f45565b80156103265780601f106102fb57610100808354040283529160200191610326565b820191906000526020600020905b81548152906001019060200180831161030957829003601f168201915b5050505050905090565b60405162461bcd60e51b81526020600482015260166024820152751054141493d5905317d393d517d4d5541413d495115160521b60448201526000906064015b60405180910390fd5b600080610385836108a7565b60025491509150915091565b6005546006546040516352dbdd1960e11b815260009261041a926001600160a01b0361010090920482169263a5b7ba32926103d0921690600401610ebc565b602060405180830381865afa1580156103ed573d6000803e3d6000fd5b505050506040513d601f19601f820116820180604052508101906104119190610f7f565b600254906108c2565b905090565b600061042a826108a7565b92915050565b60405162461bcd60e51b81526020600482015260166024820152751514905394d1915497d393d517d4d5541413d495115160521b6044820152600090606401610370565b60405162461bcd60e51b815260206004820152601760248201527610531313d5d05390d157d393d517d4d5541413d4951151604a1b6044820152600090606401610370565b6000806104c5836108a7565b9050806000036104d85750600092915050565b6005546006546040516352dbdd1960e11b815261055e9261010090046001600160a01b039081169263a5b7ba32926105169290911690600401610ebc565b602060405180830381865afa158015610533573d6000803e3d6000fd5b505050506040513d601f19601f820116820180604052508101906105579190610f7f565b82906108c2565b9392505050565b60055461010090046001600160a01b031690565b6060600480546102ad90610f45565b6006546001600160a01b031690565b600061041a60025490565b60006105ac610565565b6001600160a01b0316336001600160a01b0316146105ca600061096a565b906105e85760405162461bcd60e51b81526004016103709190610d97565b50836001600160a01b0316856001600160a01b031614158015610624575061060e610565565b6001600160a01b0316846001600160a01b031614155b1561063457610634848685610986565b600061063f856108a7565b9050600061064d8585610a38565b905080151561065c600261096a565b9061067a5760405162461bcd60e51b81526004016103709190610d97565b506106858682610af6565b6040518581526001600160a01b038716906000907fddf252ad1be2c89b69c2b068fc378daa952ba7f163c4a11628f55a4df523b3ef9060200160405180910390a3856001600160a01b0316876001600160a01b03167f2f00e3cdd69a77be7ed215ec7b2a36784dd158f921fca79ac29deffa353fe6ee8787604051610714929190918252602082015260400190565b60405180910390a3501595945050505050565b3360008181526007602090815260408083206001600160a01b0387168085529252909120839055907fda919360433220e13b51e8c211e490d148e61a3bd53de8c097194e458b97f3e1610778610588565b84604051610787929190610f98565b60405180910390a35050565b61079b610565565b6001600160a01b0316336001600160a01b0316146107b9600061096a565b906107d75760405162461bcd60e51b81526004016103709190610d97565b5060006107e48383610a38565b90508015156107f3600161096a565b906108115760405162461bcd60e51b81526004016103709190610d97565b5061081c8482610ba1565b6040518381526000906001600160a01b038616907fddf252ad1be2c89b69c2b068fc378daa952ba7f163c4a11628f55a4df523b3ef9060200160405180910390a360408051848152602081018490526001600160a01b038616917f49995e5dd6158cf69ad3e9777c46755a1a826a446c6416992167462dad033b2a910160405180910390a250505050565b6001600160a01b031660009081526020819052604090205490565b60008215806108cf575081155b156108dc5750600061042a565b816108f36002676765c793fa10079d601b1b610fdd565b6108ff90600019610ff1565b6109099190610fdd565b831115610916600461096a565b906109345760405162461bcd60e51b81526004016103709190610d97565b50676765c793fa10079d601b1b61094c600282610fdd565b6109568486611008565b6109609190611027565b61055e9190610fdd565b606061042a8260368111156109815761098161103f565b610c52565b60006109c382610996600361096a565b6001600160a01b038088166000908152600760209081526040808320938a16835292905220549190610d53565b6001600160a01b038086166000818152600760209081526040808320948916808452949091529020839055919250907fda919360433220e13b51e8c211e490d148e61a3bd53de8c097194e458b97f3e1610a1b610588565b84604051610a2a929190610f98565b60405180910390a350505050565b6000811515610a47600561096a565b90610a655760405162461bcd60e51b81526004016103709190610d97565b506000610a73600284610fdd565b9050676765c793fa10079d601b1b610a8d82600019610ff1565b610a979190610fdd565b841115610aa4600461096a565b90610ac25760405162461bcd60e51b81526004016103709190610d97565b508281610ada676765c793fa10079d601b1b87611008565b610ae49190611027565b610aee9190610fdd565b949350505050565b6001600160a01b038216610b4c5760405162461bcd60e51b815260206004820152601f60248201527f45524332303a206d696e7420746f20746865207a65726f2061646472657373006044820152606401610370565b600254610b598183610d7f565b6002556001600160a01b038316600090815260208190526040902054610b7f8184610d7f565b6001600160a01b03909416600090815260208190526040902093909355505050565b6001600160a01b038216610c015760405162461bcd60e51b815260206004820152602160248201527f45524332303a206275726e2066726f6d20746865207a65726f206164647265736044820152607360f81b6064820152608401610370565b600254610c0e8183610d8b565b6002556001600160a01b038316600090815260208181526040918290205482516060810190935260228084529092610b7f928692906110af90830139839190610d53565b606081600003610c795750506040805180820190915260018152600360fc1b602082015290565b8160005b8115610ca35780610c8d81611055565b9150610c9c9050600a83610fdd565b9150610c7d565b60008167ffffffffffffffff811115610cbe57610cbe61106e565b6040519080825280601f01601f191660200182016040528015610ce8576020820181803683370190505b5090505b8415610aee57610cfd600183610ff1565b9150610d0a600a86611084565b610d15906030611027565b60f81b818381518110610d2a57610d2a611098565b60200101906001600160f81b031916908160001a905350610d4c600a86610fdd565b9450610cec565b60008184841115610d775760405162461bcd60e51b81526004016103709190610d97565b505050900390565b600061055e8284611027565b600061055e8284610ff1565b600060208083528351808285015260005b81811015610dc457858101830151858201604001528201610da8565b81811115610dd6576000604083870101525b50601f01601f1916929092016040019392505050565b80356001600160a01b0381168114610e0357600080fd5b919050565b60008060408385031215610e1b57600080fd5b610e2483610dec565b946020939093013593505050565b600060208284031215610e4457600080fd5b61055e82610dec565b600080600060608486031215610e6257600080fd5b610e6b84610dec565b9250610e7960208501610dec565b9150604084013590509250925092565b60008060408385031215610e9c57600080fd5b610ea583610dec565b9150610eb360208401610dec565b90509250929050565b6001600160a01b0391909116815260200190565b60008060008060808587031215610ee657600080fd5b610eef85610dec565b9350610efd60208601610dec565b93969395505050506040820135916060013590565b600080600060608486031215610f2757600080fd5b610f3084610dec565b95602085013595506040909401359392505050565b600181811c90821680610f5957607f821691505b602082108103610f7957634e487b7160e01b600052602260045260246000fd5b50919050565b600060208284031215610f9157600080fd5b5051919050565b6001600160a01b03929092168252602082015260400190565b634e487b7160e01b600052601260045260246000fd5b634e487b7160e01b600052601160045260246000fd5b600082610fec57610fec610fb1565b500490565b60008282101561100357611003610fc7565b500390565b600081600019048311821515161561102257611022610fc7565b500290565b6000821982111561103a5761103a610fc7565b500190565b634e487b7160e01b600052602160045260246000fd5b60006001820161106757611067610fc7565b5060010190565b634e487b7160e01b600052604160045260246000fd5b60008261109357611093610fb1565b500690565b634e487b7160e01b600052603260045260246000fdfe45524332303a206275726e20616d6f756e7420657863656564732062616c616e6365a264697066735822122034d7e6cfce3a0dac358f1b19a148fbaa32fcaceb6a08b7e18a426f708674505164736f6c634300080e0033",
  "linkReferences": {},
  "deployedLinkReferences": {}
}