{
  "_format": "hh-sol-artifact-1",
  "contractName": "KToken",
  "sourceName": "contracts/Token/KToken.sol",
  "abi": [
    {
      "inputs": [
        {
          "internalType": "contract ILendingPool",
          "name": "pool",
          "type": "address"
        },
        {
          "internalType": "address",
          "name": "treasury",
          "type": "address"
        },
        {
          "internalType": "address",
          "name": "underlyingAsset",
          "type": "address"
        },
        {
          "internalType": "uint8",
          "name": "kTokenDecimals",
          "type": "uint8"
        },
        {
          "internalType": "string",
          "name": "kTokenName",
          "type": "string"
        },
        {
          "internalType": "string",
          "name": "kTokenSymbol",
          "type": "string"
        }
      ],
      "stateMutability": "nonpayable",
      "type": "constructor"
    },
    {
      "anonymous": false,
      "inputs": [
        {
          "indexed": true,
          "internalType": "address",
          "name": "owner",
          "type": "address"
        },
        {
          "indexed": true,
          "internalType": "address",
          "name": "spender",
          "type": "address"
        },
        {
          "indexed": false,
          "internalType": "uint256",
          "name": "value",
          "type": "uint256"
        }
      ],
      "name": "Approval",
      "type": "event"
    },
    {
      "anonymous": false,
      "inputs": [
        {
          "indexed": true,
          "internalType": "address",
          "name": "from",
          "type": "address"
        },
        {
          "indexed": true,
          "internalType": "address",
          "name": "to",
          "type": "address"
        },
        {
          "indexed": false,
          "internalType": "uint256",
          "name": "value",
          "type": "uint256"
        },
        {
          "indexed": false,
          "internalType": "uint256",
          "name": "index",
          "type": "uint256"
        }
      ],
      "name": "BalanceTransfer",
      "type": "event"
    },
    {
      "anonymous": false,
      "inputs": [
        {
          "indexed": true,
          "internalType": "address",
          "name": "from",
          "type": "address"
        },
        {
          "indexed": true,
          "internalType": "address",
          "name": "target",
          "type": "address"
        },
        {
          "indexed": false,
          "internalType": "uint256",
          "name": "value",
          "type": "uint256"
        },
        {
          "indexed": false,
          "internalType": "uint256",
          "name": "index",
          "type": "uint256"
        }
      ],
      "name": "Burn",
      "type": "event"
    },
    {
      "anonymous": false,
      "inputs": [
        {
          "indexed": true,
          "internalType": "address",
          "name": "from",
          "type": "address"
        },
        {
          "indexed": false,
          "internalType": "uint256",
          "name": "value",
          "type": "uint256"
        },
        {
          "indexed": false,
          "internalType": "uint256",
          "name": "index",
          "type": "uint256"
        }
      ],
      "name": "Mint",
      "type": "event"
    },
    {
      "anonymous": false,
      "inputs": [
        {
          "indexed": true,
          "internalType": "address",
          "name": "from",
          "type": "address"
        },
        {
          "indexed": true,
          "internalType": "address",
          "name": "to",
          "type": "address"
        },
        {
          "indexed": false,
          "internalType": "uint256",
          "name": "value",
          "type": "uint256"
        }
      ],
      "name": "Transfer",
      "type": "event"
    },
    {
      "inputs": [],
      "name": "POOL",
      "outputs": [
        {
          "internalType": "contract ILendingPool",
          "name": "",
          "type": "address"
        }
      ],
      "stateMutability": "view",
      "type": "function"
    },
    {
      "inputs": [],
      "name": "RESERVE_TREASURY_ADDRESS",
      "outputs": [
        {
          "internalType": "address",
          "name": "",
          "type": "address"
        }
      ],
      "stateMutability": "view",
      "type": "function"
    },
    {
      "inputs": [],
      "name": "UNDERLYING_ASSET_ADDRESS",
      "outputs": [
        {
          "internalType": "address",
          "name": "",
          "type": "address"
        }
      ],
      "stateMutability": "view",
      "type": "function"
    },
    {
      "inputs": [
        {
          "internalType": "address",
          "name": "owner",
          "type": "address"
        },
        {
          "internalType": "address",
          "name": "spender",
          "type": "address"
        }
      ],
      "name": "allowance",
      "outputs": [
        {
          "internalType": "uint256",
          "name": "",
          "type": "uint256"
        }
      ],
      "stateMutability": "view",
      "type": "function"
    },
    {
      "inputs": [
        {
          "internalType": "address",
          "name": "spender",
          "type": "address"
        },
        {
          "internalType": "uint256",
          "name": "amount",
          "type": "uint256"
        }
      ],
      "name": "approve",
      "outputs": [
        {
          "internalType": "bool",
          "name": "",
          "type": "bool"
        }
      ],
      "stateMutability": "nonpayable",
      "type": "function"
    },
    {
      "inputs": [
        {
          "internalType": "address",
          "name": "user",
          "type": "address"
        }
      ],
      "name": "balanceOf",
      "outputs": [
        {
          "internalType": "uint256",
          "name": "",
          "type": "uint256"
        }
      ],
      "stateMutability": "view",
      "type": "function"
    },
    {
      "inputs": [
        {
          "internalType": "address",
          "name": "user",
          "type": "address"
        },
        {
          "internalType": "address",
          "name": "receiverOfUnderlying",
          "type": "address"
        },
        {
          "internalType": "uint256",
          "name": "amount",
          "type": "uint256"
        },
        {
          "internalType": "uint256",
          "name": "index",
          "type": "uint256"
        }
      ],
      "name": "burn",
      "outputs": [],
      "stateMutability": "nonpayable",
      "type": "function"
    },
    {
      "inputs": [],
      "name": "decimals",
      "outputs": [
        {
          "internalType": "uint8",
          "name": "",
          "type": "uint8"
        }
      ],
      "stateMutability": "view",
      "type": "function"
    },
    {
      "inputs": [
        {
          "internalType": "address",
          "name": "spender",
          "type": "address"
        },
        {
          "internalType": "uint256",
          "name": "subtractedValue",
          "type": "uint256"
        }
      ],
      "name": "decreaseAllowance",
      "outputs": [
        {
          "internalType": "bool",
          "name": "",
          "type": "bool"
        }
      ],
      "stateMutability": "nonpayable",
      "type": "function"
    },
    {
      "inputs": [
        {
          "internalType": "address",
          "name": "user",
          "type": "address"
        }
      ],
      "name": "getScaledUserBalanceAndSupply",
      "outputs": [
        {
          "internalType": "uint256",
          "name": "",
          "type": "uint256"
        },
        {
          "internalType": "uint256",
          "name": "",
          "type": "uint256"
        }
      ],
      "stateMutability": "view",
      "type": "function"
    },
    {
      "inputs": [
        {
          "internalType": "address",
          "name": "user",
          "type": "address"
        },
        {
          "internalType": "uint256",
          "name": "amount",
          "type": "uint256"
        }
      ],
      "name": "handleRepayment",
      "outputs": [],
      "stateMutability": "nonpayable",
      "type": "function"
    },
    {
      "inputs": [
        {
          "internalType": "address",
          "name": "spender",
          "type": "address"
        },
        {
          "internalType": "uint256",
          "name": "addedValue",
          "type": "uint256"
        }
      ],
      "name": "increaseAllowance",
      "outputs": [
        {
          "internalType": "bool",
          "name": "",
          "type": "bool"
        }
      ],
      "stateMutability": "nonpayable",
      "type": "function"
    },
    {
      "inputs": [
        {
          "internalType": "address",
          "name": "user",
          "type": "address"
        },
        {
          "internalType": "uint256",
          "name": "amount",
          "type": "uint256"
        },
        {
          "internalType": "uint256",
          "name": "index",
          "type": "uint256"
        }
      ],
      "name": "mint",
      "outputs": [
        {
          "internalType": "bool",
          "name": "",
          "type": "bool"
        }
      ],
      "stateMutability": "nonpayable",
      "type": "function"
    },
    {
      "inputs": [
        {
          "internalType": "uint256",
          "name": "amount",
          "type": "uint256"
        },
        {
          "internalType": "uint256",
          "name": "index",
          "type": "uint256"
        }
      ],
      "name": "mintToTreasury",
      "outputs": [],
      "stateMutability": "nonpayable",
      "type": "function"
    },
    {
      "inputs": [],
      "name": "name",
      "outputs": [
        {
          "internalType": "string",
          "name": "",
          "type": "string"
        }
      ],
      "stateMutability": "view",
      "type": "function"
    },
    {
      "inputs": [
        {
          "internalType": "address",
          "name": "user",
          "type": "address"
        }
      ],
      "name": "scaledBalanceOf",
      "outputs": [
        {
          "internalType": "uint256",
          "name": "",
          "type": "uint256"
        }
      ],
      "stateMutability": "view",
      "type": "function"
    },
    {
      "inputs": [],
      "name": "scaledTotalSupply",
      "outputs": [
        {
          "internalType": "uint256",
          "name": "",
          "type": "uint256"
        }
      ],
      "stateMutability": "view",
      "type": "function"
    },
    {
      "inputs": [],
      "name": "symbol",
      "outputs": [
        {
          "internalType": "string",
          "name": "",
          "type": "string"
        }
      ],
      "stateMutability": "view",
      "type": "function"
    },
    {
      "inputs": [],
      "name": "totalSupply",
      "outputs": [
        {
          "internalType": "uint256",
          "name": "",
          "type": "uint256"
        }
      ],
      "stateMutability": "view",
      "type": "function"
    },
    {
      "inputs": [
        {
          "internalType": "address",
          "name": "recipient",
          "type": "address"
        },
        {
          "internalType": "uint256",
          "name": "amount",
          "type": "uint256"
        }
      ],
      "name": "transfer",
      "outputs": [
        {
          "internalType": "bool",
          "name": "",
          "type": "bool"
        }
      ],
      "stateMutability": "nonpayable",
      "type": "function"
    },
    {
      "inputs": [
        {
          "internalType": "address",
          "name": "sender",
          "type": "address"
        },
        {
          "internalType": "address",
          "name": "recipient",
          "type": "address"
        },
        {
          "internalType": "uint256",
          "name": "amount",
          "type": "uint256"
        }
      ],
      "name": "transferFrom",
      "outputs": [
        {
          "internalType": "bool",
          "name": "",
          "type": "bool"
        }
      ],
      "stateMutability": "nonpayable",
      "type": "function"
    },
    {
      "inputs": [
        {
          "internalType": "address",
          "name": "from",
          "type": "address"
        },
        {
          "internalType": "address",
          "name": "to",
          "type": "address"
        },
        {
          "internalType": "uint256",
          "name": "value",
          "type": "uint256"
        }
      ],
      "name": "transferOnLiquidation",
      "outputs": [],
      "stateMutability": "nonpayable",
      "type": "function"
    },
    {
      "inputs": [
        {
          "internalType": "address",
          "name": "target",
          "type": "address"
        },
        {
          "internalType": "uint256",
          "name": "amount",
          "type": "uint256"
        }
      ],
      "name": "transferUnderlyingTo",
      "outputs": [
        {
          "internalType": "uint256",
          "name": "",
          "type": "uint256"
        }
      ],
      "stateMutability": "nonpayable",
      "type": "function"
    }
  ],
  "bytecode": "0x60806040523480156200001157600080fd5b5060405162001e0538038062001e058339810160408190526200003491620002d5565b604080518082018252600b8082526a12d513d2d15397d253541360aa1b6020808401828152855180870190965292855284015281519192916000916200007e916003919062000149565b5081516200009490600490602085019062000149565b506005805460ff191660ff9290921691909117905550620000b790508262000120565b620000c28162000139565b6005805460ff191660ff85161790555050600580546001600160a01b0395861661010002610100600160a81b031990911617905550600680549284166001600160a01b031993841617905560078054919093169116179055620003d5565b80516200013590600390602084019062000149565b5050565b8051620001359060049060208401905b828054620001579062000399565b90600052602060002090601f0160209004810192826200017b5760008555620001c6565b82601f106200019657805160ff1916838001178555620001c6565b82800160010185558215620001c6579182015b82811115620001c6578251825591602001919060010190620001a9565b50620001d4929150620001d8565b5090565b5b80821115620001d45760008155600101620001d9565b6001600160a01b03811681146200020557600080fd5b50565b634e487b7160e01b600052604160045260246000fd5b600082601f8301126200023057600080fd5b81516001600160401b03808211156200024d576200024d62000208565b604051601f8301601f19908116603f0116810190828211818310171562000278576200027862000208565b816040528381526020925086838588010111156200029557600080fd5b600091505b83821015620002b957858201830151818301840152908201906200029a565b83821115620002cb5760008385830101525b9695505050505050565b60008060008060008060c08789031215620002ef57600080fd5b8651620002fc81620001ef565b60208801519096506200030f81620001ef565b60408801519095506200032281620001ef565b606088015190945060ff811681146200033a57600080fd5b60808801519093506001600160401b03808211156200035857600080fd5b620003668a838b016200021e565b935060a08901519150808211156200037d57600080fd5b506200038c89828a016200021e565b9150509295509295509295565b600181811c90821680620003ae57607f821691505b602082108103620003cf57634e487b7160e01b600052602260045260246000fd5b50919050565b611a2080620003e56000396000f3fe608060405234801561001057600080fd5b506004361061011d5760003560e01c806306fdde0314610122578063095ea7b3146101405780630afbcdc914610163578063156e29f61461018b57806318160ddd1461019e5780631da24f3e146101b457806323b872dd146101c7578063313ce567146101da57806339509351146101ef5780634efecaa51461020257806370a08231146102155780637535d246146102285780637df5bd3b1461024757806388dd91a11461025c57806395d89b411461026f578063a457c2d714610277578063a9059cbb1461028a578063ae1673351461029d578063b16a19de146102ae578063b1bf962d146102bf578063d7020d0a146102c7578063dd62ed3e146102da578063f866c31914610313575b600080fd5b61012a610326565b60405161013791906115ff565b60405180910390f35b61015361014e36600461164e565b6103b8565b6040519015158152602001610137565b610176610171366004611678565b6103cf565b60408051928352602083019190915201610137565b610153610199366004611693565b6103e7565b6101a6610508565b604051908152602001610137565b6101a66101c2366004611678565b6105b2565b6101536101d53660046116c6565b6105bd565b60055460405160ff9091168152602001610137565b6101536101fd36600461164e565b610661565b6101a661021036600461164e565b610697565b6101a6610223366004611678565b6106fc565b60055461010090046001600160a01b03165b6040516101379190611702565b61025a610255366004611716565b61078b565b005b61025a61026a36600461164e565b61086e565b61012a6108b7565b61015361028536600461164e565b6108c6565b61015361029836600461164e565b610915565b6006546001600160a01b031661023a565b6007546001600160a01b031661023a565b6101a6610959565b61025a6102d5366004611738565b610969565b6101a66102e836600461177a565b6001600160a01b03918216600090815260016020908152604080832093909416825291909152205490565b61025a6103213660046116c6565b610a95565b606060038054610335906117ad565b80601f0160208091040260200160405190810160405280929190818152602001828054610361906117ad565b80156103ae5780601f10610383576101008083540402835291602001916103ae565b820191906000526020600020905b81548152906001019060200180831161039157829003601f168201915b5050505050905090565b60006103c5338484610b27565b5060015b92915050565b6000806103db83610c43565b60025491509150915091565b60055460009061010090046001600160a01b0316336001600160a01b0316146104106000610c5e565b906104375760405162461bcd60e51b815260040161042e91906115ff565b60405180910390fd5b50600061044385610c43565b905060006104518585610c7a565b90508015156104606002610c5e565b9061047e5760405162461bcd60e51b815260040161042e91906115ff565b506104898682610d38565b6040518581526001600160a01b038716906000906000805160206119a68339815191529060200160405180910390a360408051868152602081018690526001600160a01b038816917f4c209b5fc8ad50758f13e2e1088ba56a560dff690a1c6fef26394f4c03821c4f910160405180910390a2501590505b9392505050565b60008061051460025490565b90508060000361052657600091505090565b60055460075460405163d15e005360e01b81526105ac9261010090046001600160a01b039081169263d15e0053926105649290911690600401611702565b602060405180830381865afa158015610581573d6000803e3d6000fd5b505050506040513d601f19601f820116820180604052508101906105a591906117e1565b8290610de3565b91505090565b60006103c982610c43565b60006105ca848484610e8b565b61061c84336106178560405180606001604052806028815260200161197e602891396001600160a01b038a1660009081526001602090815260408083203384529091529020549190610e98565b610b27565b826001600160a01b0316846001600160a01b03166000805160206119a68339815191528460405161064f91815260200190565b60405180910390a35060019392505050565b3360008181526001602090815260408083206001600160a01b038716845290915281205490916103c59185906106179086610ec4565b60055460009061010090046001600160a01b0316336001600160a01b0316146106c06000610c5e565b906106de5760405162461bcd60e51b815260040161042e91906115ff565b506007546106f6906001600160a01b03168484610ed0565b50919050565b60055460075460405163d15e005360e01b81526000926103c9926001600160a01b0361010090920482169263d15e00539261073b921690600401611702565b602060405180830381865afa158015610758573d6000803e3d6000fd5b505050506040513d601f19601f8201168201806040525081019061077c91906117e1565b61078584610c43565b90610de3565b60055461010090046001600160a01b0316336001600160a01b0316146107b16000610c5e565b906107cf5760405162461bcd60e51b815260040161042e91906115ff565b50811561086a576006546001600160a01b03166107f5816107f08585610c7a565b610d38565b6040518381526001600160a01b038216906000906000805160206119a68339815191529060200160405180910390a360408051848152602081018490526001600160a01b038316917f4c209b5fc8ad50758f13e2e1088ba56a560dff690a1c6fef26394f4c03821c4f910160405180910390a2505b5050565b60055461010090046001600160a01b0316336001600160a01b0316146108946000610c5e565b906108b25760405162461bcd60e51b815260040161042e91906115ff565b505050565b606060048054610335906117ad565b60006103c53384610617856040518060600160405280602581526020016119c6602591393360009081526001602090815260408083206001600160a01b038d1684529091529020549190610e98565b6000610922338484610e8b565b6040518281526001600160a01b0384169033906000805160206119a68339815191529060200160405180910390a350600192915050565b600061096460025490565b905090565b60055461010090046001600160a01b0316336001600160a01b03161461098f6000610c5e565b906109ad5760405162461bcd60e51b815260040161042e91906115ff565b5060006109ba8383610c7a565b90508015156109c96001610c5e565b906109e75760405162461bcd60e51b815260040161042e91906115ff565b506109f28582610f22565b600754610a09906001600160a01b03168585610ed0565b6040518381526000906001600160a01b038716906000805160206119a68339815191529060200160405180910390a3836001600160a01b0316856001600160a01b03167f5d624aa9c148153ab3446c1b154f660ee7701e549fe9b62dab7171b1c80e6fa28585604051610a86929190918252602082015260400190565b60405180910390a35050505050565b60055461010090046001600160a01b0316336001600160a01b031614610abb6000610c5e565b90610ad95760405162461bcd60e51b815260040161042e91906115ff565b50610ae78383836000610fd3565b816001600160a01b0316836001600160a01b03166000805160206119a683398151915283604051610b1a91815260200190565b60405180910390a3505050565b6001600160a01b038316610b895760405162461bcd60e51b8152602060048201526024808201527f45524332303a20617070726f76652066726f6d20746865207a65726f206164646044820152637265737360e01b606482015260840161042e565b6001600160a01b038216610bea5760405162461bcd60e51b815260206004820152602260248201527f45524332303a20617070726f766520746f20746865207a65726f206164647265604482015261737360f01b606482015260840161042e565b6001600160a01b0383811660008181526001602090815260408083209487168084529482529182902085905590518481527f8c5be1e5ebec7d5bd14f71427d1e84f3dd0314c0f7b2291e5b200ac8c7c3b9259101610b1a565b6001600160a01b031660009081526020819052604090205490565b60606103c9826036811115610c7557610c756117fa565b611176565b6000811515610c896005610c5e565b90610ca75760405162461bcd60e51b815260040161042e91906115ff565b506000610cb560028461183c565b9050676765c793fa10079d601b1b610ccf82600019611850565b610cd9919061183c565b841115610ce66004610c5e565b90610d045760405162461bcd60e51b815260040161042e91906115ff565b508281610d1c676765c793fa10079d601b1b87611867565b610d269190611886565b610d30919061183c565b949350505050565b6001600160a01b038216610d8e5760405162461bcd60e51b815260206004820152601f60248201527f45524332303a206d696e7420746f20746865207a65726f206164647265737300604482015260640161042e565b600254610d9b8183610ec4565b6002556001600160a01b038316600090815260208190526040902054610dc18184610ec4565b6001600160a01b03909416600090815260208190526040902093909355505050565b6000821580610df0575081155b15610dfd575060006103c9565b81610e146002676765c793fa10079d601b1b61183c565b610e2090600019611850565b610e2a919061183c565b831115610e376004610c5e565b90610e555760405162461bcd60e51b815260040161042e91906115ff565b50676765c793fa10079d601b1b610e6d60028261183c565b610e778486611867565b610e819190611886565b610501919061183c565b6108b28383836001610fd3565b60008184841115610ebc5760405162461bcd60e51b815260040161042e91906115ff565b505050900390565b60006105018284611886565b604080516001600160a01b038416602482015260448082018490528251808303909101815260649091019091526020810180516001600160e01b031663a9059cbb60e01b1790526108b2908490611277565b6001600160a01b038216610f825760405162461bcd60e51b815260206004820152602160248201527f45524332303a206275726e2066726f6d20746865207a65726f206164647265736044820152607360f81b606482015260840161042e565b600254610f8f8183611349565b6002556001600160a01b038316600090815260208181526040918290205482516060810190935260228084529092610dc19286929061193690830139839190610e98565b60075460055460405163d15e005360e01b81526001600160a01b039283169261010090920490911690600090829063d15e005390611015908690600401611702565b602060405180830381865afa158015611032573d6000803e3d6000fd5b505050506040513d601f19601f8201168201806040525081019061105691906117e1565b90506000611067826107858a610c43565b90506000611078836107858a610c43565b905061108e89896110898a87610c7a565b611355565b85156111155760405163d5ed393360e01b81526001600160a01b0386811660048301528a811660248301528981166044830152606482018990526084820184905260a4820183905285169063d5ed39339060c401600060405180830381600087803b1580156110fc57600080fd5b505af1158015611110573d6000803e3d6000fd5b505050505b876001600160a01b0316896001600160a01b03167f4beccb90f994c31aced7a23b5611020728a23d8ec5cddd1a3e9d97b96fda86668986604051611163929190918252602082015260400190565b60405180910390a3505050505050505050565b60608160000361119d5750506040805180820190915260018152600360fc1b602082015290565b8160005b81156111c757806111b18161189e565b91506111c09050600a8361183c565b91506111a1565b60008167ffffffffffffffff8111156111e2576111e26118b7565b6040519080825280601f01601f19166020018201604052801561120c576020820181803683370190505b5090505b8415610d3057611221600183611850565b915061122e600a866118cd565b611239906030611886565b60f81b81838151811061124e5761124e6118e1565b60200101906001600160f81b031916908160001a905350611270600a8661183c565b9450611210565b60006112cc826040518060400160405280602081526020017f5361666545524332303a206c6f772d6c6576656c2063616c6c206661696c6564815250856001600160a01b03166114bb9092919063ffffffff16565b8051909150156108b257808060200190518101906112ea91906118f7565b6108b25760405162461bcd60e51b815260206004820152602a60248201527f5361666545524332303a204552433230206f7065726174696f6e20646964206e6044820152691bdd081cdd58d8d9595960b21b606482015260840161042e565b60006105018284611850565b6001600160a01b0383166113b95760405162461bcd60e51b815260206004820152602560248201527f45524332303a207472616e736665722066726f6d20746865207a65726f206164604482015264647265737360d81b606482015260840161042e565b6001600160a01b03821661141b5760405162461bcd60e51b815260206004820152602360248201527f45524332303a207472616e7366657220746f20746865207a65726f206164647260448201526265737360e81b606482015260840161042e565b6000806000856001600160a01b03166001600160a01b031681526020019081526020016000205490506114698260405180606001604052806026815260200161195860269139839190610e98565b6001600160a01b0380861660009081526020819052604080822093909355908516815220546114988184610ec4565b6001600160a01b0390941660009081526020819052604090209390935550505050565b6060610d308484600085856001600160a01b0385163b61151d5760405162461bcd60e51b815260206004820152601d60248201527f416464726573733a2063616c6c20746f206e6f6e2d636f6e7472616374000000604482015260640161042e565b600080866001600160a01b031685876040516115399190611919565b60006040518083038185875af1925050503d8060008114611576576040519150601f19603f3d011682016040523d82523d6000602084013e61157b565b606091505b509150915061158b828286611596565b979650505050505050565b606083156115a5575081610501565b8251156115b55782518084602001fd5b8160405162461bcd60e51b815260040161042e91906115ff565b60005b838110156115ea5781810151838201526020016115d2565b838111156115f9576000848401525b50505050565b602081526000825180602084015261161e8160408501602087016115cf565b601f01601f19169190910160400192915050565b80356001600160a01b038116811461164957600080fd5b919050565b6000806040838503121561166157600080fd5b61166a83611632565b946020939093013593505050565b60006020828403121561168a57600080fd5b61050182611632565b6000806000606084860312156116a857600080fd5b6116b184611632565b95602085013595506040909401359392505050565b6000806000606084860312156116db57600080fd5b6116e484611632565b92506116f260208501611632565b9150604084013590509250925092565b6001600160a01b0391909116815260200190565b6000806040838503121561172957600080fd5b50508035926020909101359150565b6000806000806080858703121561174e57600080fd5b61175785611632565b935061176560208601611632565b93969395505050506040820135916060013590565b6000806040838503121561178d57600080fd5b61179683611632565b91506117a460208401611632565b90509250929050565b600181811c908216806117c157607f821691505b6020821081036106f657634e487b7160e01b600052602260045260246000fd5b6000602082840312156117f357600080fd5b5051919050565b634e487b7160e01b600052602160045260246000fd5b634e487b7160e01b600052601260045260246000fd5b634e487b7160e01b600052601160045260246000fd5b60008261184b5761184b611810565b500490565b60008282101561186257611862611826565b500390565b600081600019048311821515161561188157611881611826565b500290565b6000821982111561189957611899611826565b500190565b6000600182016118b0576118b0611826565b5060010190565b634e487b7160e01b600052604160045260246000fd5b6000826118dc576118dc611810565b500690565b634e487b7160e01b600052603260045260246000fd5b60006020828403121561190957600080fd5b8151801515811461050157600080fd5b6000825161192b8184602087016115cf565b919091019291505056fe45524332303a206275726e20616d6f756e7420657863656564732062616c616e636545524332303a207472616e7366657220616d6f756e7420657863656564732062616c616e636545524332303a207472616e7366657220616d6f756e74206578636565647320616c6c6f77616e6365ddf252ad1be2c89b69c2b068fc378daa952ba7f163c4a11628f55a4df523b3ef45524332303a2064656372656173656420616c6c6f77616e63652062656c6f77207a65726fa2646970667358221220af0951d46605fc3b8928ed981c01fb0f587ec0fab04d0eebfe35dafcad9eff1b64736f6c634300080e0033",
  "linkReferences": {},
  "deployedLinkReferences": {}
}