{
  "_format": "hh-sol-artifact-1",
  "contractName": "LendingPoolConfigurator",
  "sourceName": "contracts/Pool/LendingPoolConfigurator.sol",
  "abi": [
    {
      "inputs": [
        {
          "internalType": "contract ILendingPoolAddressesProvider",
          "name": "provider",
          "type": "address"
        },
        {
          "internalType": "contract ILendingPool",
          "name": "lending_pool",
          "type": "address"
        }
      ],
      "stateMutability": "nonpayable",
      "type": "constructor"
    },
    {
      "anonymous": false,
      "inputs": [
        {
          "indexed": true,
          "internalType": "address",
          "name": "asset",
          "type": "address"
        }
      ],
      "name": "BorrowingDisabledOnReserve",
      "type": "event"
    },
    {
      "anonymous": false,
      "inputs": [
        {
          "indexed": true,
          "internalType": "address",
          "name": "asset",
          "type": "address"
        }
      ],
      "name": "BorrowingEnabledOnReserve",
      "type": "event"
    },
    {
      "anonymous": false,
      "inputs": [
        {
          "indexed": true,
          "internalType": "address",
          "name": "asset",
          "type": "address"
        },
        {
          "indexed": false,
          "internalType": "uint256",
          "name": "ltv",
          "type": "uint256"
        },
        {
          "indexed": false,
          "internalType": "uint256",
          "name": "liquidationThreshold",
          "type": "uint256"
        },
        {
          "indexed": false,
          "internalType": "uint256",
          "name": "liquidationBonus",
          "type": "uint256"
        }
      ],
      "name": "CollateralConfigurationChanged",
      "type": "event"
    },
    {
      "anonymous": false,
      "inputs": [
        {
          "indexed": true,
          "internalType": "address",
          "name": "asset",
          "type": "address"
        }
      ],
      "name": "ReserveActivated",
      "type": "event"
    },
    {
      "anonymous": false,
      "inputs": [
        {
          "indexed": true,
          "internalType": "address",
          "name": "asset",
          "type": "address"
        }
      ],
      "name": "ReserveDeactivated",
      "type": "event"
    },
    {
      "anonymous": false,
      "inputs": [
        {
          "indexed": true,
          "internalType": "address",
          "name": "asset",
          "type": "address"
        },
        {
          "indexed": false,
          "internalType": "uint256",
          "name": "decimals",
          "type": "uint256"
        }
      ],
      "name": "ReserveDecimalsChanged",
      "type": "event"
    },
    {
      "anonymous": false,
      "inputs": [
        {
          "indexed": true,
          "internalType": "address",
          "name": "asset",
          "type": "address"
        },
        {
          "indexed": false,
          "internalType": "uint256",
          "name": "factor",
          "type": "uint256"
        }
      ],
      "name": "ReserveFactorChanged",
      "type": "event"
    },
    {
      "anonymous": false,
      "inputs": [
        {
          "indexed": true,
          "internalType": "address",
          "name": "asset",
          "type": "address"
        }
      ],
      "name": "ReserveFrozen",
      "type": "event"
    },
    {
      "anonymous": false,
      "inputs": [
        {
          "indexed": true,
          "internalType": "address",
          "name": "asset",
          "type": "address"
        },
        {
          "indexed": true,
          "internalType": "address",
          "name": "kToken",
          "type": "address"
        },
        {
          "indexed": false,
          "internalType": "address",
          "name": "dToken",
          "type": "address"
        },
        {
          "indexed": false,
          "internalType": "address",
          "name": "interestRateStrategyAddress",
          "type": "address"
        }
      ],
      "name": "ReserveInitialized",
      "type": "event"
    },
    {
      "anonymous": false,
      "inputs": [
        {
          "indexed": true,
          "internalType": "address",
          "name": "asset",
          "type": "address"
        },
        {
          "indexed": false,
          "internalType": "address",
          "name": "strategy",
          "type": "address"
        }
      ],
      "name": "ReserveInterestRateStrategyChanged",
      "type": "event"
    },
    {
      "anonymous": false,
      "inputs": [
        {
          "indexed": true,
          "internalType": "address",
          "name": "asset",
          "type": "address"
        }
      ],
      "name": "ReserveUnfrozen",
      "type": "event"
    },
    {
      "inputs": [
        {
          "internalType": "address",
          "name": "asset",
          "type": "address"
        }
      ],
      "name": "activateReserve",
      "outputs": [],
      "stateMutability": "nonpayable",
      "type": "function"
    },
    {
      "inputs": [
        {
          "components": [
            {
              "internalType": "uint8",
              "name": "underlyingAssetDecimals",
              "type": "uint8"
            },
            {
              "internalType": "address",
              "name": "interestRateStrategyAddress",
              "type": "address"
            },
            {
              "internalType": "address",
              "name": "underlyingAsset",
              "type": "address"
            },
            {
              "internalType": "address",
              "name": "treasury",
              "type": "address"
            },
            {
              "internalType": "string",
              "name": "kTokenName",
              "type": "string"
            },
            {
              "internalType": "string",
              "name": "kTokenSymbol",
              "type": "string"
            },
            {
              "internalType": "uint8",
              "name": "kTokenDecimals",
              "type": "uint8"
            },
            {
              "internalType": "string",
              "name": "dTokenName",
              "type": "string"
            },
            {
              "internalType": "string",
              "name": "dTokenSymbol",
              "type": "string"
            },
            {
              "internalType": "uint8",
              "name": "dTokenDecimals",
              "type": "uint8"
            }
          ],
          "internalType": "struct ILendingPoolConfigurator.InitReserveInput[]",
          "name": "input",
          "type": "tuple[]"
        }
      ],
      "name": "batchInitReserve",
      "outputs": [],
      "stateMutability": "nonpayable",
      "type": "function"
    },
    {
      "inputs": [
        {
          "internalType": "address",
          "name": "asset",
          "type": "address"
        },
        {
          "internalType": "uint256",
          "name": "ltv",
          "type": "uint256"
        },
        {
          "internalType": "uint256",
          "name": "liquidationThreshold",
          "type": "uint256"
        },
        {
          "internalType": "uint256",
          "name": "liquidationBonus",
          "type": "uint256"
        }
      ],
      "name": "configureReserveAsCollateral",
      "outputs": [],
      "stateMutability": "nonpayable",
      "type": "function"
    },
    {
      "inputs": [
        {
          "internalType": "address",
          "name": "asset",
          "type": "address"
        }
      ],
      "name": "deactivateReserve",
      "outputs": [],
      "stateMutability": "nonpayable",
      "type": "function"
    },
    {
      "inputs": [
        {
          "internalType": "address",
          "name": "asset",
          "type": "address"
        }
      ],
      "name": "disableBorrowingOnReserve",
      "outputs": [],
      "stateMutability": "nonpayable",
      "type": "function"
    },
    {
      "inputs": [
        {
          "internalType": "address",
          "name": "asset",
          "type": "address"
        }
      ],
      "name": "enableBorrowingOnReserve",
      "outputs": [],
      "stateMutability": "nonpayable",
      "type": "function"
    },
    {
      "inputs": [
        {
          "internalType": "address",
          "name": "asset",
          "type": "address"
        }
      ],
      "name": "freezeReserve",
      "outputs": [],
      "stateMutability": "nonpayable",
      "type": "function"
    },
    {
      "inputs": [
        {
          "components": [
            {
              "internalType": "uint8",
              "name": "underlyingAssetDecimals",
              "type": "uint8"
            },
            {
              "internalType": "address",
              "name": "interestRateStrategyAddress",
              "type": "address"
            },
            {
              "internalType": "address",
              "name": "underlyingAsset",
              "type": "address"
            },
            {
              "internalType": "address",
              "name": "treasury",
              "type": "address"
            },
            {
              "internalType": "string",
              "name": "kTokenName",
              "type": "string"
            },
            {
              "internalType": "string",
              "name": "kTokenSymbol",
              "type": "string"
            },
            {
              "internalType": "uint8",
              "name": "kTokenDecimals",
              "type": "uint8"
            },
            {
              "internalType": "string",
              "name": "dTokenName",
              "type": "string"
            },
            {
              "internalType": "string",
              "name": "dTokenSymbol",
              "type": "string"
            },
            {
              "internalType": "uint8",
              "name": "dTokenDecimals",
              "type": "uint8"
            }
          ],
          "internalType": "struct ILendingPoolConfigurator.InitReserveInput",
          "name": "input",
          "type": "tuple"
        }
      ],
      "name": "initReserve",
      "outputs": [],
      "stateMutability": "nonpayable",
      "type": "function"
    },
    {
      "inputs": [
        {
          "internalType": "bool",
          "name": "val",
          "type": "bool"
        }
      ],
      "name": "setPoolPause",
      "outputs": [],
      "stateMutability": "nonpayable",
      "type": "function"
    },
    {
      "inputs": [
        {
          "internalType": "address",
          "name": "asset",
          "type": "address"
        },
        {
          "internalType": "uint256",
          "name": "reserveFactor",
          "type": "uint256"
        }
      ],
      "name": "setReserveFactor",
      "outputs": [],
      "stateMutability": "nonpayable",
      "type": "function"
    },
    {
      "inputs": [
        {
          "internalType": "address",
          "name": "asset",
          "type": "address"
        },
        {
          "internalType": "address",
          "name": "rateStrategyAddress",
          "type": "address"
        }
      ],
      "name": "setReserveInterestRateStrategyAddress",
      "outputs": [],
      "stateMutability": "nonpayable",
      "type": "function"
    },
    {
      "inputs": [
        {
          "internalType": "address",
          "name": "asset",
          "type": "address"
        }
      ],
      "name": "unfreezeReserve",
      "outputs": [],
      "stateMutability": "nonpayable",
      "type": "function"
    }
  ],
  "bytecode": "0x60806040523480156200001157600080fd5b50604051620058023803806200580283398101604081905262000034916200007f565b600080546001600160a01b039384166001600160a01b03199182161790915560018054929093169116179055620000be565b6001600160a01b03811681146200007c57600080fd5b50565b600080604083850312156200009357600080fd5b8251620000a08162000066565b6020840151909250620000b38162000066565b809150509250929050565b61573480620000ce6000396000f3fe60806040523480156200001157600080fd5b5060043610620000b25760003560e01c80631d2118f914620000b75780633e72a45414620000d05780634b4e675314620000e75780635050d19014620000fe5780637641f3d914620001155780637aca76eb146200012c5780637c4e560b1462000143578063a8dc0f45146200015a578063b75d6f341462000171578063c18872d31462000188578063d825b868146200019f578063ef1f937314620001b6575b600080fd5b620000ce620000c836600462001c5a565b620001cd565b005b620000ce620000e136600462001c98565b6200032d565b620000ce620000f836600462001cb8565b62000500565b620000ce6200010f36600462001ce7565b620006d9565b620000ce6200012636600462001d6f565b620007e8565b620000ce6200013d36600462001c98565b620008f4565b620000ce6200015436600462001d8f565b62000abc565b620000ce6200016b36600462001c98565b62000d96565b620000ce6200018236600462001c98565b62000f5e565b620000ce6200019936600462001c98565b62001126565b620000ce620001b036600462001dcd565b620012ee565b620000ce620001c736600462001c98565b620013b2565b6000546040805163070feb1760e41b8152905133926001600160a01b0316916370feb1709160048083019260209291908290030181865afa15801562000217573d6000803e3d6000fd5b505050506040513d601f19601f820116820180604052508101906200023d919062001e1d565b6001600160a01b0316146200025360096200157a565b906200027d5760405162461bcd60e51b815260040162000274919062001e3d565b60405180910390fd5b50600154604051631d2118f960e01b81526001600160a01b0390911690631d2118f990620002b2908590859060040162001e95565b600060405180830381600087803b158015620002cd57600080fd5b505af1158015620002e2573d6000803e3d6000fd5b50505050816001600160a01b03167f5644b64ebb0ce18c4032248ca52f58355469092ff072866c3dcd8640e817d6a58260405162000321919062001eaf565b60405180910390a25050565b6000546040805163070feb1760e41b8152905133926001600160a01b0316916370feb1709160048083019260209291908290030181865afa15801562000377573d6000803e3d6000fd5b505050506040513d601f19601f820116820180604052508101906200039d919062001e1d565b6001600160a01b031614620003b360096200157a565b90620003d45760405162461bcd60e51b815260040162000274919062001e3d565b50620003e081620015a1565b60015460405163c44b11f760e01b81526000916001600160a01b03169063c44b11f7906200041390859060040162001eaf565b61010060405180830381865afa15801562000432573d6000803e3d6000fd5b505050506040513d601f19601f8201168201806040525081019062000458919062001ff6565b6000608082015260015460405163c84555bd60e01b81529192506001600160a01b03169063c84555bd9062000494908590859060040162002016565b600060405180830381600087803b158015620004af57600080fd5b505af1158015620004c4573d6000803e3d6000fd5b50506040516001600160a01b03851692507f6f60cf8bd0f218cabe1ea3150bd07b0b758c35c4cfdf7138017a283e65564d5e9150600090a25050565b6000546040805163070feb1760e41b8152905133926001600160a01b0316916370feb1709160048083019260209291908290030181865afa1580156200054a573d6000803e3d6000fd5b505050506040513d601f19601f8201168201806040525081019062000570919062001e1d565b6001600160a01b0316146200058660096200157a565b90620005a75760405162461bcd60e51b815260040162000274919062001e3d565b5060015460405163c44b11f760e01b81526000916001600160a01b03169063c44b11f790620005db90869060040162001eaf565b61010060405180830381865afa158015620005fa573d6000803e3d6000fd5b505050506040513d601f19601f8201168201806040525081019062000620919062001ff6565b60e0810183905260015460405163c84555bd60e01b81529192506001600160a01b03169063c84555bd906200065c908690859060040162002016565b600060405180830381600087803b1580156200067757600080fd5b505af11580156200068c573d6000803e3d6000fd5b50505050826001600160a01b03167f2694ccb0b585b6a54b8d8b4a47aa874b05c257b43d34e98aee50838be00d340583604051620006cc91815260200190565b60405180910390a2505050565b6000546040805163070feb1760e41b8152905133926001600160a01b0316916370feb1709160048083019260209291908290030181865afa15801562000723573d6000803e3d6000fd5b505050506040513d601f19601f8201168201806040525081019062000749919062001e1d565b6001600160a01b0316146200075f60096200157a565b90620007805760405162461bcd60e51b815260040162000274919062001e3d565b506001546001600160a01b031660005b82811015620007e257620007cd82858584818110620007b357620007b362002091565b9050602002810190620007c79190620020a7565b620016dc565b80620007d981620020df565b91505062000790565b50505050565b60005460408051636ee554f560e11b8152905133926001600160a01b03169163ddcaa9ea9160048083019260209291908290030181865afa15801562000832573d6000803e3d6000fd5b505050506040513d601f19601f8201168201806040525081019062000858919062001e1d565b6001600160a01b0316146200086e600a6200157a565b906200088f5760405162461bcd60e51b815260040162000274919062001e3d565b5060015460405163bedb86fb60e01b815282151560048201526001600160a01b039091169063bedb86fb90602401600060405180830381600087803b158015620008d857600080fd5b505af1158015620008ed573d6000803e3d6000fd5b5050505050565b6000546040805163070feb1760e41b8152905133926001600160a01b0316916370feb1709160048083019260209291908290030181865afa1580156200093e573d6000803e3d6000fd5b505050506040513d601f19601f8201168201806040525081019062000964919062001e1d565b6001600160a01b0316146200097a60096200157a565b906200099b5760405162461bcd60e51b815260040162000274919062001e3d565b5060015460405163c44b11f760e01b81526000916001600160a01b03169063c44b11f790620009cf90859060040162001eaf565b61010060405180830381865afa158015620009ee573d6000803e3d6000fd5b505050506040513d601f19601f8201168201806040525081019062000a14919062001ff6565b600160a082018190525460405163c84555bd60e01b81529192506001600160a01b03169063c84555bd9062000a50908590859060040162002016565b600060405180830381600087803b15801562000a6b57600080fd5b505af115801562000a80573d6000803e3d6000fd5b50506040516001600160a01b03851692507f85dc710add8a0914461a7dc5a63f6fc529a7700f8c6089a3faf5e93256ccf12a9150600090a25050565b6000546040805163070feb1760e41b8152905133926001600160a01b0316916370feb1709160048083019260209291908290030181865afa15801562000b06573d6000803e3d6000fd5b505050506040513d601f19601f8201168201806040525081019062000b2c919062001e1d565b6001600160a01b03161462000b4260096200157a565b9062000b635760405162461bcd60e51b815260040162000274919062001e3d565b5060015460405163c44b11f760e01b81526000916001600160a01b03169063c44b11f79062000b9790889060040162001eaf565b61010060405180830381865afa15801562000bb6573d6000803e3d6000fd5b505050506040513d601f19601f8201168201806040525081019062000bdc919062001ff6565b90508284111562000bee600e6200157a565b9062000c0f5760405162461bcd60e51b815260040162000274919062001e3d565b50821562000c8f57612710821162000c28600e6200157a565b9062000c495760405162461bcd60e51b815260040162000274919062001e3d565b5061271062000c59848462001a52565b111562000c67600e6200157a565b9062000c885760405162461bcd60e51b815260040162000274919062001e3d565b5062000cca565b811562000c9d600e6200157a565b9062000cbe5760405162461bcd60e51b815260040162000274919062001e3d565b5062000cca85620015a1565b838152602081018390526040808201839052600154905163c84555bd60e01b81526001600160a01b039091169063c84555bd9062000d0f908890859060040162002016565b600060405180830381600087803b15801562000d2a57600080fd5b505af115801562000d3f573d6000803e3d6000fd5b505060408051878152602081018790529081018590526001600160a01b03881692507f637febbda9275aea2e85c0ff690444c8d87eb2e8339bbede9715abcc89cb0995915060600160405180910390a25050505050565b6000546040805163070feb1760e41b8152905133926001600160a01b0316916370feb1709160048083019260209291908290030181865afa15801562000de0573d6000803e3d6000fd5b505050506040513d601f19601f8201168201806040525081019062000e06919062001e1d565b6001600160a01b03161462000e1c60096200157a565b9062000e3d5760405162461bcd60e51b815260040162000274919062001e3d565b5060015460405163c44b11f760e01b81526000916001600160a01b03169063c44b11f79062000e7190859060040162001eaf565b61010060405180830381865afa15801562000e90573d6000803e3d6000fd5b505050506040513d601f19601f8201168201806040525081019062000eb6919062001ff6565b600060c082015260015460405163c84555bd60e01b81529192506001600160a01b03169063c84555bd9062000ef2908590859060040162002016565b600060405180830381600087803b15801562000f0d57600080fd5b505af115801562000f22573d6000803e3d6000fd5b50506040516001600160a01b03851692507fe9a7e5fd4fc8ea18e602350324bf48e8f05d12434af0ce0be05743e6a5fdcb9e9150600090a25050565b6000546040805163070feb1760e41b8152905133926001600160a01b0316916370feb1709160048083019260209291908290030181865afa15801562000fa8573d6000803e3d6000fd5b505050506040513d601f19601f8201168201806040525081019062000fce919062001e1d565b6001600160a01b03161462000fe460096200157a565b90620010055760405162461bcd60e51b815260040162000274919062001e3d565b5060015460405163c44b11f760e01b81526000916001600160a01b03169063c44b11f7906200103990859060040162001eaf565b61010060405180830381865afa15801562001058573d6000803e3d6000fd5b505050506040513d601f19601f820116820180604052508101906200107e919062001ff6565b6001608082018190525460405163c84555bd60e01b81529192506001600160a01b03169063c84555bd90620010ba908590859060040162002016565b600060405180830381600087803b158015620010d557600080fd5b505af1158015620010ea573d6000803e3d6000fd5b50506040516001600160a01b03851692507f35b80cd8ea3440e9a8454f116fa658b858da1b64c86c48451f4559cefcdfb56c9150600090a25050565b6000546040805163070feb1760e41b8152905133926001600160a01b0316916370feb1709160048083019260209291908290030181865afa15801562001170573d6000803e3d6000fd5b505050506040513d601f19601f8201168201806040525081019062001196919062001e1d565b6001600160a01b031614620011ac60096200157a565b90620011cd5760405162461bcd60e51b815260040162000274919062001e3d565b5060015460405163c44b11f760e01b81526000916001600160a01b03169063c44b11f7906200120190859060040162001eaf565b61010060405180830381865afa15801562001220573d6000803e3d6000fd5b505050506040513d601f19601f8201168201806040525081019062001246919062001ff6565b600160c082018190525460405163c84555bd60e01b81529192506001600160a01b03169063c84555bd9062001282908590859060040162002016565b600060405180830381600087803b1580156200129d57600080fd5b505af1158015620012b2573d6000803e3d6000fd5b50506040516001600160a01b03851692507f9f32a339ab4590ec0a60d629f2322805ba6e57c9d862e1ef9f8555f6780ea2c69150600090a25050565b6000546040805163070feb1760e41b8152905133926001600160a01b0316916370feb1709160048083019260209291908290030181865afa15801562001338573d6000803e3d6000fd5b505050506040513d601f19601f820116820180604052508101906200135e919062001e1d565b6001600160a01b0316146200137460096200157a565b90620013955760405162461bcd60e51b815260040162000274919062001e3d565b506001546001600160a01b0316620013ae8183620016dc565b5050565b6000546040805163070feb1760e41b8152905133926001600160a01b0316916370feb1709160048083019260209291908290030181865afa158015620013fc573d6000803e3d6000fd5b505050506040513d601f19601f8201168201806040525081019062001422919062001e1d565b6001600160a01b0316146200143860096200157a565b90620014595760405162461bcd60e51b815260040162000274919062001e3d565b5060015460405163c44b11f760e01b81526000916001600160a01b03169063c44b11f7906200148d90859060040162001eaf565b61010060405180830381865afa158015620014ac573d6000803e3d6000fd5b505050506040513d601f19601f82011682018060405250810190620014d2919062001ff6565b600060a082015260015460405163c84555bd60e01b81529192506001600160a01b03169063c84555bd906200150e908590859060040162002016565b600060405180830381600087803b1580156200152957600080fd5b505af11580156200153e573d6000803e3d6000fd5b50506040516001600160a01b03851692507f838ecdc4709a31a26db48b0c853212cedde3f725f07030079d793fb0719647609150600090a25050565b60606200159b826036811115620015955762001595620020fb565b62001b05565b92915050565b6001546040516335ea6a7560e01b81526000916001600160a01b0316906335ea6a7590620015d490859060040162001eaf565b61022060405180830381865afa158015620015f3573d6000803e3d6000fd5b505050506040513d601f19601f820116820180604052508101906200161991906200213f565b90506000826001600160a01b03166370a082318360c001516040518263ffffffff1660e01b81526004016200164f919062001eaf565b602060405180830381865afa1580156200166d573d6000803e3d6000fd5b505050506040513d601f19601f8201168201806040525081019062001693919062002222565b905080158015620016af575060608201516001600160801b0316155b620016bb600d6200157a565b90620007e25760405162461bcd60e51b815260040162000274919062001e3d565b600082620016f1608084016060850162001c98565b62001703606085016040860162001c98565b6200171560e0860160c087016200223c565b6200172460808701876200225c565b6200173360a08901896200225c565b604051620017419062001c25565b62001754989796959493929190620022d5565b604051809103906000f08015801562001771573d6000803e3d6000fd5b509050806000846200178a606086016040870162001c98565b6200179e610140870161012088016200223c565b620017ad60e08801886200225c565b620017bd6101008a018a6200225c565b604051620017cb9062001c33565b620017dd979695949392919062002339565b604051809103906000f080158015620017fa573d6000803e3d6000fd5b5060015490915081906001600160a01b0316638bd2567762001823606088016040890162001c98565b85846200183760408b0160208c0162001c98565b60405160e086901b6001600160e01b03191681526001600160a01b039485166004820152928416602484015290831660448301529091166064820152608401600060405180830381600087803b1580156200189157600080fd5b505af1158015620018a6573d6000803e3d6000fd5b5050600154600092506001600160a01b0316905063c44b11f7620018d16060890160408a0162001c98565b6040518263ffffffff1660e01b8152600401620018ef919062001eaf565b61010060405180830381865afa1580156200190e573d6000803e3d6000fd5b505050506040513d601f19601f8201168201806040525081019062001934919062001ff6565b90506200194560208701876200223c565b60ff16606080830191909152600160808301819052600060a0840152546001600160a01b03169063c84555bd906200198390890160408a0162001c98565b836040518363ffffffff1660e01b8152600401620019a392919062002016565b600060405180830381600087803b158015620019be57600080fd5b505af1158015620019d3573d6000803e3d6000fd5b5050506001600160a01b0385169050620019f4606088016040890162001c98565b6001600160a01b03167f2a069b08eadd1ba3aeb05729cf22947a941b9f400cfc778be430b52a946372828462001a3160408b0160208c0162001c98565b60405162001a4192919062001e95565b60405180910390a350505050505050565b600082158062001a60575081155b1562001a6f575060006200159b565b8162001a7f6002612710620023aa565b62001a8d90600019620023c1565b62001a999190620023aa565b83111562001aa860046200157a565b9062001ac95760405162461bcd60e51b815260040162000274919062001e3d565b5061271062001ada600282620023aa565b62001ae68486620023db565b62001af29190620023fd565b62001afe9190620023aa565b9392505050565b60608160000362001b2d5750506040805180820190915260018152600360fc1b602082015290565b8160005b811562001b5d578062001b4481620020df565b915062001b559050600a83620023aa565b915062001b31565b6000816001600160401b0381111562001b7a5762001b7a62001ec3565b6040519080825280601f01601f19166020018201604052801562001ba5576020820181803683370190505b5090505b841562001c1d5762001bbd600183620023c1565b915062001bcc600a8662002418565b62001bd9906030620023fd565b60f81b81838151811062001bf15762001bf162002091565b60200101906001600160f81b031916908160001a90535062001c15600a86620023aa565b945062001ba9565b949350505050565b611e05806200243083390190565b6114ca806200423583390190565b6001600160a01b038116811462001c5757600080fd5b50565b6000806040838503121562001c6e57600080fd5b823562001c7b8162001c41565b9150602083013562001c8d8162001c41565b809150509250929050565b60006020828403121562001cab57600080fd5b813562001afe8162001c41565b6000806040838503121562001ccc57600080fd5b823562001cd98162001c41565b946020939093013593505050565b6000806020838503121562001cfb57600080fd5b82356001600160401b038082111562001d1357600080fd5b818501915085601f83011262001d2857600080fd5b81358181111562001d3857600080fd5b8660208260051b850101111562001d4e57600080fd5b60209290920196919550909350505050565b801515811462001c5757600080fd5b60006020828403121562001d8257600080fd5b813562001afe8162001d60565b6000806000806080858703121562001da657600080fd5b843562001db38162001c41565b966020860135965060408601359560600135945092505050565b60006020828403121562001de057600080fd5b81356001600160401b0381111562001df757600080fd5b8201610140818503121562001afe57600080fd5b805162001e188162001c41565b919050565b60006020828403121562001e3057600080fd5b815162001afe8162001c41565b600060208083528351808285015260005b8181101562001e6c5785810183015185820160400152820162001e4e565b8181111562001e7f576000604083870101525b50601f01601f1916929092016040019392505050565b6001600160a01b0392831681529116602082015260400190565b6001600160a01b0391909116815260200190565b634e487b7160e01b600052604160045260246000fd5b60405161014081016001600160401b038111828210171562001f0b57634e487b7160e01b600052604160045260246000fd5b60405290565b60ff8116811462001c5757600080fd5b805162001e188162001d60565b600061010080838503121562001f4357600080fd5b604051908101906001600160401b038211818310171562001f7457634e487b7160e01b600052604160045260246000fd5b816040528092508351815260208401516020820152604084015160408201526060840151915062001fa58262001f11565b81606082015262001fb96080850162001f21565b608082015262001fcc60a0850162001f21565b60a082015262001fdf60c0850162001f21565b60c082015260e084015160e0820152505092915050565b600061010082840312156200200a57600080fd5b62001afe838362001f2e565b60006101208201905060018060a01b038416825282516020830152602083015160408301526040830151606083015260ff60608401511660808301526080830151151560a083015260a0830151151560c083015260c08301516200207e60e084018215159052565b5060e08301516101008301529392505050565b634e487b7160e01b600052603260045260246000fd5b6000823561013e19833603018112620020bf57600080fd5b9190910192915050565b634e487b7160e01b600052601160045260246000fd5b600060018201620020f457620020f4620020c9565b5060010190565b634e487b7160e01b600052602160045260246000fd5b80516001600160801b038116811462001e1857600080fd5b805164ffffffffff8116811462001e1857600080fd5b600061022082840312156200215357600080fd5b6200215d62001ed9565b62002169848462001f2e565b81526101006200217b81850162002111565b60208301526101206200219081860162002111565b6040840152620021a4610140860162002111565b6060840152620021b8610160860162002111565b6080840152620021cc610180860162002129565b60a0840152620021e06101a0860162001e0b565b60c0840152620021f46101c0860162001e0b565b60e0840152620022086101e0860162001e0b565b828401526102008501518184015250508091505092915050565b6000602082840312156200223557600080fd5b5051919050565b6000602082840312156200224f57600080fd5b813562001afe8162001f11565b6000808335601e198436030181126200227457600080fd5b8301803591506001600160401b038211156200228f57600080fd5b602001915036819003821315620022a557600080fd5b9250929050565b81835281816020850137506000828201602090810191909152601f909101601f19169091010190565b6001600160a01b03898116825288811660208301528716604082015260ff8616606082015260c060808201819052600090620023159083018688620022ac565b82810360a08401526200232a818587620022ac565b9b9a5050505050505050505050565b6001600160a01b0388811682528716602082015260ff8616604082015260a060608201819052600090620023719083018688620022ac565b828103608084015262002386818587620022ac565b9a9950505050505050505050565b634e487b7160e01b600052601260045260246000fd5b600082620023bc57620023bc62002394565b500490565b600082821015620023d657620023d6620020c9565b500390565b6000816000190483118215151615620023f857620023f8620020c9565b500290565b60008219821115620024135762002413620020c9565b500190565b6000826200242a576200242a62002394565b50069056fe60806040523480156200001157600080fd5b5060405162001e0538038062001e058339810160408190526200003491620002d5565b604080518082018252600b8082526a12d513d2d15397d253541360aa1b6020808401828152855180870190965292855284015281519192916000916200007e916003919062000149565b5081516200009490600490602085019062000149565b506005805460ff191660ff9290921691909117905550620000b790508262000120565b620000c28162000139565b6005805460ff191660ff85161790555050600580546001600160a01b0395861661010002610100600160a81b031990911617905550600680549284166001600160a01b031993841617905560078054919093169116179055620003d5565b80516200013590600390602084019062000149565b5050565b8051620001359060049060208401905b828054620001579062000399565b90600052602060002090601f0160209004810192826200017b5760008555620001c6565b82601f106200019657805160ff1916838001178555620001c6565b82800160010185558215620001c6579182015b82811115620001c6578251825591602001919060010190620001a9565b50620001d4929150620001d8565b5090565b5b80821115620001d45760008155600101620001d9565b6001600160a01b03811681146200020557600080fd5b50565b634e487b7160e01b600052604160045260246000fd5b600082601f8301126200023057600080fd5b81516001600160401b03808211156200024d576200024d62000208565b604051601f8301601f19908116603f0116810190828211818310171562000278576200027862000208565b816040528381526020925086838588010111156200029557600080fd5b600091505b83821015620002b957858201830151818301840152908201906200029a565b83821115620002cb5760008385830101525b9695505050505050565b60008060008060008060c08789031215620002ef57600080fd5b8651620002fc81620001ef565b60208801519096506200030f81620001ef565b60408801519095506200032281620001ef565b606088015190945060ff811681146200033a57600080fd5b60808801519093506001600160401b03808211156200035857600080fd5b620003668a838b016200021e565b935060a08901519150808211156200037d57600080fd5b506200038c89828a016200021e565b9150509295509295509295565b600181811c90821680620003ae57607f821691505b602082108103620003cf57634e487b7160e01b600052602260045260246000fd5b50919050565b611a2080620003e56000396000f3fe608060405234801561001057600080fd5b506004361061011d5760003560e01c806306fdde0314610122578063095ea7b3146101405780630afbcdc914610163578063156e29f61461018b57806318160ddd1461019e5780631da24f3e146101b457806323b872dd146101c7578063313ce567146101da57806339509351146101ef5780634efecaa51461020257806370a08231146102155780637535d246146102285780637df5bd3b1461024757806388dd91a11461025c57806395d89b411461026f578063a457c2d714610277578063a9059cbb1461028a578063ae1673351461029d578063b16a19de146102ae578063b1bf962d146102bf578063d7020d0a146102c7578063dd62ed3e146102da578063f866c31914610313575b600080fd5b61012a610326565b60405161013791906115ff565b60405180910390f35b61015361014e36600461164e565b6103b8565b6040519015158152602001610137565b610176610171366004611678565b6103cf565b60408051928352602083019190915201610137565b610153610199366004611693565b6103e7565b6101a6610508565b604051908152602001610137565b6101a66101c2366004611678565b6105b2565b6101536101d53660046116c6565b6105bd565b60055460405160ff9091168152602001610137565b6101536101fd36600461164e565b610661565b6101a661021036600461164e565b610697565b6101a6610223366004611678565b6106fc565b60055461010090046001600160a01b03165b6040516101379190611702565b61025a610255366004611716565b61078b565b005b61025a61026a36600461164e565b61086e565b61012a6108b7565b61015361028536600461164e565b6108c6565b61015361029836600461164e565b610915565b6006546001600160a01b031661023a565b6007546001600160a01b031661023a565b6101a6610959565b61025a6102d5366004611738565b610969565b6101a66102e836600461177a565b6001600160a01b03918216600090815260016020908152604080832093909416825291909152205490565b61025a6103213660046116c6565b610a95565b606060038054610335906117ad565b80601f0160208091040260200160405190810160405280929190818152602001828054610361906117ad565b80156103ae5780601f10610383576101008083540402835291602001916103ae565b820191906000526020600020905b81548152906001019060200180831161039157829003601f168201915b5050505050905090565b60006103c5338484610b27565b5060015b92915050565b6000806103db83610c43565b60025491509150915091565b60055460009061010090046001600160a01b0316336001600160a01b0316146104106000610c5e565b906104375760405162461bcd60e51b815260040161042e91906115ff565b60405180910390fd5b50600061044385610c43565b905060006104518585610c7a565b90508015156104606002610c5e565b9061047e5760405162461bcd60e51b815260040161042e91906115ff565b506104898682610d38565b6040518581526001600160a01b038716906000906000805160206119a68339815191529060200160405180910390a360408051868152602081018690526001600160a01b038816917f4c209b5fc8ad50758f13e2e1088ba56a560dff690a1c6fef26394f4c03821c4f910160405180910390a2501590505b9392505050565b60008061051460025490565b90508060000361052657600091505090565b60055460075460405163d15e005360e01b81526105ac9261010090046001600160a01b039081169263d15e0053926105649290911690600401611702565b602060405180830381865afa158015610581573d6000803e3d6000fd5b505050506040513d601f19601f820116820180604052508101906105a591906117e1565b8290610de3565b91505090565b60006103c982610c43565b60006105ca848484610e8b565b61061c84336106178560405180606001604052806028815260200161197e602891396001600160a01b038a1660009081526001602090815260408083203384529091529020549190610e98565b610b27565b826001600160a01b0316846001600160a01b03166000805160206119a68339815191528460405161064f91815260200190565b60405180910390a35060019392505050565b3360008181526001602090815260408083206001600160a01b038716845290915281205490916103c59185906106179086610ec4565b60055460009061010090046001600160a01b0316336001600160a01b0316146106c06000610c5e565b906106de5760405162461bcd60e51b815260040161042e91906115ff565b506007546106f6906001600160a01b03168484610ed0565b50919050565b60055460075460405163d15e005360e01b81526000926103c9926001600160a01b0361010090920482169263d15e00539261073b921690600401611702565b602060405180830381865afa158015610758573d6000803e3d6000fd5b505050506040513d601f19601f8201168201806040525081019061077c91906117e1565b61078584610c43565b90610de3565b60055461010090046001600160a01b0316336001600160a01b0316146107b16000610c5e565b906107cf5760405162461bcd60e51b815260040161042e91906115ff565b50811561086a576006546001600160a01b03166107f5816107f08585610c7a565b610d38565b6040518381526001600160a01b038216906000906000805160206119a68339815191529060200160405180910390a360408051848152602081018490526001600160a01b038316917f4c209b5fc8ad50758f13e2e1088ba56a560dff690a1c6fef26394f4c03821c4f910160405180910390a2505b5050565b60055461010090046001600160a01b0316336001600160a01b0316146108946000610c5e565b906108b25760405162461bcd60e51b815260040161042e91906115ff565b505050565b606060048054610335906117ad565b60006103c53384610617856040518060600160405280602581526020016119c6602591393360009081526001602090815260408083206001600160a01b038d1684529091529020549190610e98565b6000610922338484610e8b565b6040518281526001600160a01b0384169033906000805160206119a68339815191529060200160405180910390a350600192915050565b600061096460025490565b905090565b60055461010090046001600160a01b0316336001600160a01b03161461098f6000610c5e565b906109ad5760405162461bcd60e51b815260040161042e91906115ff565b5060006109ba8383610c7a565b90508015156109c96001610c5e565b906109e75760405162461bcd60e51b815260040161042e91906115ff565b506109f28582610f22565b600754610a09906001600160a01b03168585610ed0565b6040518381526000906001600160a01b038716906000805160206119a68339815191529060200160405180910390a3836001600160a01b0316856001600160a01b03167f5d624aa9c148153ab3446c1b154f660ee7701e549fe9b62dab7171b1c80e6fa28585604051610a86929190918252602082015260400190565b60405180910390a35050505050565b60055461010090046001600160a01b0316336001600160a01b031614610abb6000610c5e565b90610ad95760405162461bcd60e51b815260040161042e91906115ff565b50610ae78383836000610fd3565b816001600160a01b0316836001600160a01b03166000805160206119a683398151915283604051610b1a91815260200190565b60405180910390a3505050565b6001600160a01b038316610b895760405162461bcd60e51b8152602060048201526024808201527f45524332303a20617070726f76652066726f6d20746865207a65726f206164646044820152637265737360e01b606482015260840161042e565b6001600160a01b038216610bea5760405162461bcd60e51b815260206004820152602260248201527f45524332303a20617070726f766520746f20746865207a65726f206164647265604482015261737360f01b606482015260840161042e565b6001600160a01b0383811660008181526001602090815260408083209487168084529482529182902085905590518481527f8c5be1e5ebec7d5bd14f71427d1e84f3dd0314c0f7b2291e5b200ac8c7c3b9259101610b1a565b6001600160a01b031660009081526020819052604090205490565b60606103c9826036811115610c7557610c756117fa565b611176565b6000811515610c896005610c5e565b90610ca75760405162461bcd60e51b815260040161042e91906115ff565b506000610cb560028461183c565b9050676765c793fa10079d601b1b610ccf82600019611850565b610cd9919061183c565b841115610ce66004610c5e565b90610d045760405162461bcd60e51b815260040161042e91906115ff565b508281610d1c676765c793fa10079d601b1b87611867565b610d269190611886565b610d30919061183c565b949350505050565b6001600160a01b038216610d8e5760405162461bcd60e51b815260206004820152601f60248201527f45524332303a206d696e7420746f20746865207a65726f206164647265737300604482015260640161042e565b600254610d9b8183610ec4565b6002556001600160a01b038316600090815260208190526040902054610dc18184610ec4565b6001600160a01b03909416600090815260208190526040902093909355505050565b6000821580610df0575081155b15610dfd575060006103c9565b81610e146002676765c793fa10079d601b1b61183c565b610e2090600019611850565b610e2a919061183c565b831115610e376004610c5e565b90610e555760405162461bcd60e51b815260040161042e91906115ff565b50676765c793fa10079d601b1b610e6d60028261183c565b610e778486611867565b610e819190611886565b610501919061183c565b6108b28383836001610fd3565b60008184841115610ebc5760405162461bcd60e51b815260040161042e91906115ff565b505050900390565b60006105018284611886565b604080516001600160a01b038416602482015260448082018490528251808303909101815260649091019091526020810180516001600160e01b031663a9059cbb60e01b1790526108b2908490611277565b6001600160a01b038216610f825760405162461bcd60e51b815260206004820152602160248201527f45524332303a206275726e2066726f6d20746865207a65726f206164647265736044820152607360f81b606482015260840161042e565b600254610f8f8183611349565b6002556001600160a01b038316600090815260208181526040918290205482516060810190935260228084529092610dc19286929061193690830139839190610e98565b60075460055460405163d15e005360e01b81526001600160a01b039283169261010090920490911690600090829063d15e005390611015908690600401611702565b602060405180830381865afa158015611032573d6000803e3d6000fd5b505050506040513d601f19601f8201168201806040525081019061105691906117e1565b90506000611067826107858a610c43565b90506000611078836107858a610c43565b905061108e89896110898a87610c7a565b611355565b85156111155760405163d5ed393360e01b81526001600160a01b0386811660048301528a811660248301528981166044830152606482018990526084820184905260a4820183905285169063d5ed39339060c401600060405180830381600087803b1580156110fc57600080fd5b505af1158015611110573d6000803e3d6000fd5b505050505b876001600160a01b0316896001600160a01b03167f4beccb90f994c31aced7a23b5611020728a23d8ec5cddd1a3e9d97b96fda86668986604051611163929190918252602082015260400190565b60405180910390a3505050505050505050565b60608160000361119d5750506040805180820190915260018152600360fc1b602082015290565b8160005b81156111c757806111b18161189e565b91506111c09050600a8361183c565b91506111a1565b60008167ffffffffffffffff8111156111e2576111e26118b7565b6040519080825280601f01601f19166020018201604052801561120c576020820181803683370190505b5090505b8415610d3057611221600183611850565b915061122e600a866118cd565b611239906030611886565b60f81b81838151811061124e5761124e6118e1565b60200101906001600160f81b031916908160001a905350611270600a8661183c565b9450611210565b60006112cc826040518060400160405280602081526020017f5361666545524332303a206c6f772d6c6576656c2063616c6c206661696c6564815250856001600160a01b03166114bb9092919063ffffffff16565b8051909150156108b257808060200190518101906112ea91906118f7565b6108b25760405162461bcd60e51b815260206004820152602a60248201527f5361666545524332303a204552433230206f7065726174696f6e20646964206e6044820152691bdd081cdd58d8d9595960b21b606482015260840161042e565b60006105018284611850565b6001600160a01b0383166113b95760405162461bcd60e51b815260206004820152602560248201527f45524332303a207472616e736665722066726f6d20746865207a65726f206164604482015264647265737360d81b606482015260840161042e565b6001600160a01b03821661141b5760405162461bcd60e51b815260206004820152602360248201527f45524332303a207472616e7366657220746f20746865207a65726f206164647260448201526265737360e81b606482015260840161042e565b6000806000856001600160a01b03166001600160a01b031681526020019081526020016000205490506114698260405180606001604052806026815260200161195860269139839190610e98565b6001600160a01b0380861660009081526020819052604080822093909355908516815220546114988184610ec4565b6001600160a01b0390941660009081526020819052604090209390935550505050565b6060610d308484600085856001600160a01b0385163b61151d5760405162461bcd60e51b815260206004820152601d60248201527f416464726573733a2063616c6c20746f206e6f6e2d636f6e7472616374000000604482015260640161042e565b600080866001600160a01b031685876040516115399190611919565b60006040518083038185875af1925050503d8060008114611576576040519150601f19603f3d011682016040523d82523d6000602084013e61157b565b606091505b509150915061158b828286611596565b979650505050505050565b606083156115a5575081610501565b8251156115b55782518084602001fd5b8160405162461bcd60e51b815260040161042e91906115ff565b60005b838110156115ea5781810151838201526020016115d2565b838111156115f9576000848401525b50505050565b602081526000825180602084015261161e8160408501602087016115cf565b601f01601f19169190910160400192915050565b80356001600160a01b038116811461164957600080fd5b919050565b6000806040838503121561166157600080fd5b61166a83611632565b946020939093013593505050565b60006020828403121561168a57600080fd5b61050182611632565b6000806000606084860312156116a857600080fd5b6116b184611632565b95602085013595506040909401359392505050565b6000806000606084860312156116db57600080fd5b6116e484611632565b92506116f260208501611632565b9150604084013590509250925092565b6001600160a01b0391909116815260200190565b6000806040838503121561172957600080fd5b50508035926020909101359150565b6000806000806080858703121561174e57600080fd5b61175785611632565b935061176560208601611632565b93969395505050506040820135916060013590565b6000806040838503121561178d57600080fd5b61179683611632565b91506117a460208401611632565b90509250929050565b600181811c908216806117c157607f821691505b6020821081036106f657634e487b7160e01b600052602260045260246000fd5b6000602082840312156117f357600080fd5b5051919050565b634e487b7160e01b600052602160045260246000fd5b634e487b7160e01b600052601260045260246000fd5b634e487b7160e01b600052601160045260246000fd5b60008261184b5761184b611810565b500490565b60008282101561186257611862611826565b500390565b600081600019048311821515161561188157611881611826565b500290565b6000821982111561189957611899611826565b500190565b6000600182016118b0576118b0611826565b5060010190565b634e487b7160e01b600052604160045260246000fd5b6000826118dc576118dc611810565b500690565b634e487b7160e01b600052603260045260246000fd5b60006020828403121561190957600080fd5b8151801515811461050157600080fd5b6000825161192b8184602087016115cf565b919091019291505056fe45524332303a206275726e20616d6f756e7420657863656564732062616c616e636545524332303a207472616e7366657220616d6f756e7420657863656564732062616c616e636545524332303a207472616e7366657220616d6f756e74206578636565647320616c6c6f77616e6365ddf252ad1be2c89b69c2b068fc378daa952ba7f163c4a11628f55a4df523b3ef45524332303a2064656372656173656420616c6c6f77616e63652062656c6f77207a65726fa2646970667358221220af0951d46605fc3b8928ed981c01fb0f587ec0fab04d0eebfe35dafcad9eff1b64736f6c634300080e003360806040523480156200001157600080fd5b50604051620014ca380380620014ca8339810160408190526200003491620002c8565b604080518082018252600e8082526d111150951513d2d15397d253541360921b6020808401828152855180870190965292855284015281519192916000916200008191600391906200013c565b508151620000979060049060208501906200013c565b506005805460ff191660ff9290921691909117905550620000ba90508262000113565b620000c5816200012c565b6005805460ff191660ff8516179055505060058054610100600160a81b0319166101006001600160a01b039586160217905550600680546001600160a01b03191691909216179055620003b4565b8051620001289060039060208401906200013c565b5050565b8051620001289060049060208401905b8280546200014a9062000378565b90600052602060002090601f0160209004810192826200016e5760008555620001b9565b82601f106200018957805160ff1916838001178555620001b9565b82800160010185558215620001b9579182015b82811115620001b95782518255916020019190600101906200019c565b50620001c7929150620001cb565b5090565b5b80821115620001c75760008155600101620001cc565b6001600160a01b0381168114620001f857600080fd5b50565b634e487b7160e01b600052604160045260246000fd5b600082601f8301126200022357600080fd5b81516001600160401b0380821115620002405762000240620001fb565b604051601f8301601f19908116603f011681019082821181831017156200026b576200026b620001fb565b816040528381526020925086838588010111156200028857600080fd5b600091505b83821015620002ac57858201830151818301840152908201906200028d565b83821115620002be5760008385830101525b9695505050505050565b600080600080600060a08688031215620002e157600080fd5b8551620002ee81620001e2565b60208701519095506200030181620001e2565b604087015190945060ff811681146200031957600080fd5b60608701519093506001600160401b03808211156200033757600080fd5b6200034589838a0162000211565b935060808801519150808211156200035c57600080fd5b506200036b8882890162000211565b9150509295509295909350565b600181811c908216806200038d57607f821691505b602082108103620003ae57634e487b7160e01b600052602260045260246000fd5b50919050565b61110680620003c46000396000f3fe608060405234801561001057600080fd5b50600436106100fc5760003560e01c806306fdde0314610101578063095ea7b31461011f5780630afbcdc91461014257806318160ddd1461016a5780631da24f3e1461018057806323b872dd14610193578063313ce567146101a657806339509351146101bb5780636bd76d24146101ce57806370a08231146102075780637535d2461461021a57806395d89b411461022f578063a457c2d7146101bb578063a9059cbb14610237578063b16a19de14610245578063b1bf962d1461024d578063b3f1c93d14610255578063c04a8a1014610268578063dd62ed3e1461027d578063f5298aca1461028b575b600080fd5b61010961029e565b6040516101169190610d97565b60405180910390f35b61013261012d366004610e08565b610330565b6040519015158152602001610116565b610155610150366004610e32565b610379565b60408051928352602083019190915201610116565b610172610391565b604051908152602001610116565b61017261018e366004610e32565b61041f565b6101326101a1366004610e4d565b610430565b60055460405160ff9091168152602001610116565b6101326101c9366004610e08565b610474565b6101726101dc366004610e89565b6001600160a01b03918216600090815260076020908152604080832093909416825291909152205490565b610172610215366004610e32565b6104b9565b610222610565565b6040516101169190610ebc565b610109610579565b6101326101a1366004610e08565b610222610588565b610172610597565b610132610263366004610ed0565b6105a2565b61027b610276366004610e08565b610727565b005b6101726101c9366004610e89565b61027b610299366004610f12565b610793565b6060600380546102ad90610f45565b80601f01602080910402602001604051908101604052809291908181526020018280546102d990610f45565b80156103265780601f106102fb57610100808354040283529160200191610326565b820191906000526020600020905b81548152906001019060200180831161030957829003601f168201915b5050505050905090565b60405162461bcd60e51b81526020600482015260166024820152751054141493d5905317d393d517d4d5541413d495115160521b60448201526000906064015b60405180910390fd5b600080610385836108a7565b60025491509150915091565b6005546006546040516352dbdd1960e11b815260009261041a926001600160a01b0361010090920482169263a5b7ba32926103d0921690600401610ebc565b602060405180830381865afa1580156103ed573d6000803e3d6000fd5b505050506040513d601f19601f820116820180604052508101906104119190610f7f565b600254906108c2565b905090565b600061042a826108a7565b92915050565b60405162461bcd60e51b81526020600482015260166024820152751514905394d1915497d393d517d4d5541413d495115160521b6044820152600090606401610370565b60405162461bcd60e51b815260206004820152601760248201527610531313d5d05390d157d393d517d4d5541413d4951151604a1b6044820152600090606401610370565b6000806104c5836108a7565b9050806000036104d85750600092915050565b6005546006546040516352dbdd1960e11b815261055e9261010090046001600160a01b039081169263a5b7ba32926105169290911690600401610ebc565b602060405180830381865afa158015610533573d6000803e3d6000fd5b505050506040513d601f19601f820116820180604052508101906105579190610f7f565b82906108c2565b9392505050565b60055461010090046001600160a01b031690565b6060600480546102ad90610f45565b6006546001600160a01b031690565b600061041a60025490565b60006105ac610565565b6001600160a01b0316336001600160a01b0316146105ca600061096a565b906105e85760405162461bcd60e51b81526004016103709190610d97565b50836001600160a01b0316856001600160a01b031614158015610624575061060e610565565b6001600160a01b0316846001600160a01b031614155b1561063457610634848685610986565b600061063f856108a7565b9050600061064d8585610a38565b905080151561065c600261096a565b9061067a5760405162461bcd60e51b81526004016103709190610d97565b506106858682610af6565b6040518581526001600160a01b038716906000907fddf252ad1be2c89b69c2b068fc378daa952ba7f163c4a11628f55a4df523b3ef9060200160405180910390a3856001600160a01b0316876001600160a01b03167f2f00e3cdd69a77be7ed215ec7b2a36784dd158f921fca79ac29deffa353fe6ee8787604051610714929190918252602082015260400190565b60405180910390a3501595945050505050565b3360008181526007602090815260408083206001600160a01b0387168085529252909120839055907fda919360433220e13b51e8c211e490d148e61a3bd53de8c097194e458b97f3e1610778610588565b84604051610787929190610f98565b60405180910390a35050565b61079b610565565b6001600160a01b0316336001600160a01b0316146107b9600061096a565b906107d75760405162461bcd60e51b81526004016103709190610d97565b5060006107e48383610a38565b90508015156107f3600161096a565b906108115760405162461bcd60e51b81526004016103709190610d97565b5061081c8482610ba1565b6040518381526000906001600160a01b038616907fddf252ad1be2c89b69c2b068fc378daa952ba7f163c4a11628f55a4df523b3ef9060200160405180910390a360408051848152602081018490526001600160a01b038616917f49995e5dd6158cf69ad3e9777c46755a1a826a446c6416992167462dad033b2a910160405180910390a250505050565b6001600160a01b031660009081526020819052604090205490565b60008215806108cf575081155b156108dc5750600061042a565b816108f36002676765c793fa10079d601b1b610fdd565b6108ff90600019610ff1565b6109099190610fdd565b831115610916600461096a565b906109345760405162461bcd60e51b81526004016103709190610d97565b50676765c793fa10079d601b1b61094c600282610fdd565b6109568486611008565b6109609190611027565b61055e9190610fdd565b606061042a8260368111156109815761098161103f565b610c52565b60006109c382610996600361096a565b6001600160a01b038088166000908152600760209081526040808320938a16835292905220549190610d53565b6001600160a01b038086166000818152600760209081526040808320948916808452949091529020839055919250907fda919360433220e13b51e8c211e490d148e61a3bd53de8c097194e458b97f3e1610a1b610588565b84604051610a2a929190610f98565b60405180910390a350505050565b6000811515610a47600561096a565b90610a655760405162461bcd60e51b81526004016103709190610d97565b506000610a73600284610fdd565b9050676765c793fa10079d601b1b610a8d82600019610ff1565b610a979190610fdd565b841115610aa4600461096a565b90610ac25760405162461bcd60e51b81526004016103709190610d97565b508281610ada676765c793fa10079d601b1b87611008565b610ae49190611027565b610aee9190610fdd565b949350505050565b6001600160a01b038216610b4c5760405162461bcd60e51b815260206004820152601f60248201527f45524332303a206d696e7420746f20746865207a65726f2061646472657373006044820152606401610370565b600254610b598183610d7f565b6002556001600160a01b038316600090815260208190526040902054610b7f8184610d7f565b6001600160a01b03909416600090815260208190526040902093909355505050565b6001600160a01b038216610c015760405162461bcd60e51b815260206004820152602160248201527f45524332303a206275726e2066726f6d20746865207a65726f206164647265736044820152607360f81b6064820152608401610370565b600254610c0e8183610d8b565b6002556001600160a01b038316600090815260208181526040918290205482516060810190935260228084529092610b7f928692906110af90830139839190610d53565b606081600003610c795750506040805180820190915260018152600360fc1b602082015290565b8160005b8115610ca35780610c8d81611055565b9150610c9c9050600a83610fdd565b9150610c7d565b60008167ffffffffffffffff811115610cbe57610cbe61106e565b6040519080825280601f01601f191660200182016040528015610ce8576020820181803683370190505b5090505b8415610aee57610cfd600183610ff1565b9150610d0a600a86611084565b610d15906030611027565b60f81b818381518110610d2a57610d2a611098565b60200101906001600160f81b031916908160001a905350610d4c600a86610fdd565b9450610cec565b60008184841115610d775760405162461bcd60e51b81526004016103709190610d97565b505050900390565b600061055e8284611027565b600061055e8284610ff1565b600060208083528351808285015260005b81811015610dc457858101830151858201604001528201610da8565b81811115610dd6576000604083870101525b50601f01601f1916929092016040019392505050565b80356001600160a01b0381168114610e0357600080fd5b919050565b60008060408385031215610e1b57600080fd5b610e2483610dec565b946020939093013593505050565b600060208284031215610e4457600080fd5b61055e82610dec565b600080600060608486031215610e6257600080fd5b610e6b84610dec565b9250610e7960208501610dec565b9150604084013590509250925092565b60008060408385031215610e9c57600080fd5b610ea583610dec565b9150610eb360208401610dec565b90509250929050565b6001600160a01b0391909116815260200190565b60008060008060808587031215610ee657600080fd5b610eef85610dec565b9350610efd60208601610dec565b93969395505050506040820135916060013590565b600080600060608486031215610f2757600080fd5b610f3084610dec565b95602085013595506040909401359392505050565b600181811c90821680610f5957607f821691505b602082108103610f7957634e487b7160e01b600052602260045260246000fd5b50919050565b600060208284031215610f9157600080fd5b5051919050565b6001600160a01b03929092168252602082015260400190565b634e487b7160e01b600052601260045260246000fd5b634e487b7160e01b600052601160045260246000fd5b600082610fec57610fec610fb1565b500490565b60008282101561100357611003610fc7565b500390565b600081600019048311821515161561102257611022610fc7565b500290565b6000821982111561103a5761103a610fc7565b500190565b634e487b7160e01b600052602160045260246000fd5b60006001820161106757611067610fc7565b5060010190565b634e487b7160e01b600052604160045260246000fd5b60008261109357611093610fb1565b500690565b634e487b7160e01b600052603260045260246000fdfe45524332303a206275726e20616d6f756e7420657863656564732062616c616e6365a264697066735822122034d7e6cfce3a0dac358f1b19a148fbaa32fcaceb6a08b7e18a426f708674505164736f6c634300080e0033a26469706673582212200f65024032b8ac2cfe01a9e4d4fe6d5a9ab6863dc0410482047f99ab68ab6ffc64736f6c634300080e0033",
  "linkReferences": {},
  "deployedLinkReferences": {}
}