{
  "_format": "hh-sol-artifact-1",
  "contractName": "LendingPoolCollateralManager",
  "sourceName": "contracts/Pool/LendingPoolCollateralManager.sol",
  "abi": [
    {
      "inputs": [],
      "stateMutability": "nonpayable",
      "type": "constructor"
    },
    {
      "anonymous": false,
      "inputs": [
        {
          "indexed": true,
          "internalType": "address",
          "name": "collateral",
          "type": "address"
        },
        {
          "indexed": true,
          "internalType": "address",
          "name": "principal",
          "type": "address"
        },
        {
          "indexed": true,
          "internalType": "address",
          "name": "user",
          "type": "address"
        },
        {
          "indexed": false,
          "internalType": "uint256",
          "name": "debtToCover",
          "type": "uint256"
        },
        {
          "indexed": false,
          "internalType": "uint256",
          "name": "liquidatedCollateralAmount",
          "type": "uint256"
        },
        {
          "indexed": false,
          "internalType": "address",
          "name": "liquidator",
          "type": "address"
        },
        {
          "indexed": false,
          "internalType": "bool",
          "name": "receiveAToken",
          "type": "bool"
        }
      ],
      "name": "LiquidationCall",
      "type": "event"
    },
    {
      "anonymous": false,
      "inputs": [
        {
          "indexed": true,
          "internalType": "address",
          "name": "reserve",
          "type": "address"
        },
        {
          "indexed": true,
          "internalType": "address",
          "name": "user",
          "type": "address"
        }
      ],
      "name": "ReserveUsedAsCollateralDisabled",
      "type": "event"
    },
    {
      "anonymous": false,
      "inputs": [
        {
          "indexed": true,
          "internalType": "address",
          "name": "reserve",
          "type": "address"
        },
        {
          "indexed": true,
          "internalType": "address",
          "name": "user",
          "type": "address"
        }
      ],
      "name": "ReserveUsedAsCollateralEnabled",
      "type": "event"
    },
    {
      "inputs": [
        {
          "internalType": "address",
          "name": "collateralAsset",
          "type": "address"
        },
        {
          "internalType": "address",
          "name": "debtAsset",
          "type": "address"
        },
        {
          "internalType": "address",
          "name": "user",
          "type": "address"
        },
        {
          "internalType": "uint256",
          "name": "debtToCover",
          "type": "uint256"
        },
        {
          "internalType": "bool",
          "name": "receiveAToken",
          "type": "bool"
        }
      ],
      "name": "liquidationCall",
      "outputs": [
        {
          "internalType": "uint256",
          "name": "",
          "type": "uint256"
        },
        {
          "internalType": "string",
          "name": "",
          "type": "string"
        }
      ],
      "stateMutability": "nonpayable",
      "type": "function"
    }
  ],
  "bytecode": "0x608060405234801561001057600080fd5b50612525806100206000396000f3fe608060405234801561001057600080fd5b506004361061002a5760003560e01c8062a718a91461002f575b600080fd5b61004261003d366004612121565b610059565b6040516100509291906121e1565b60405180910390f35b6001600160a01b03808616600090815260016020908152604080832088851684528184209488168452600290925282209192606092610096612069565b61011c89600184600660075460008054906101000a90046001600160a01b03166001600160a01b031663fca513a86040518163ffffffff1660e01b8152600401602060405180830381865afa1580156100f3573d6000803e3d6000fd5b505050506040513d601f19601f8201168201806040525081019061011791906121fa565b6107fb565b61010086015250505060088401546040516370a0823160e01b81526001600160a01b0390911691506370a0823190610158908c90600401612217565b602060405180830381865afa158015610175573d6000803e3d6000fd5b505050506040513d601f19601f82011682018060405250810190610199919061222b565b602082018190526101008201516101b69186918691869190610f90565b6101c08301526101a08201819052602c146101e457806101a00151816101c0015195509550505050506107f1565b6007840154600160281b90046001600160a01b031661014082018190526040516370a0823160e01b81526370a0823190610222908c90600401612217565b602060405180830381865afa15801561023f573d6000803e3d6000fd5b505050506040513d601f19601f82011682018060405250810190610263919061222b565b8152602081015161027690611388611063565b604082018190528811610289578761028f565b80604001515b6060820181905281516102aa91869186918f918f919061110b565b60e0830181905260c0830191909152606082015111156102cf5760e081015160608201525b86610372576101408101516040516370a0823160e01b81526000916001600160a01b038e16916370a082319161030791600401612217565b602060405180830381865afa158015610324573d6000803e3d6000fd5b505050506040513d601f19601f82011682018060405250810190610348919061222b565b90508160c0015181101561037057603161036260356113b3565b9650965050505050506107f1565b505b61037b836113cf565b806060015181602001511061040f57600883015460608201516005850154604051637a94c56560e11b81526001600160a01b039093169263f5298aca926103d8928e92600160801b9091046001600160801b03169060040161225a565b600060405180830381600087803b1580156103f257600080fd5b505af1158015610406573d6000803e3d6000fd5b5050505061049a565b60208101511561049a57600883015460208201516005850154604051637a94c56560e11b81526001600160a01b039093169263f5298aca92610467928e92600160801b9091046001600160801b03169060040161225a565b600060405180830381600087803b15801561048157600080fd5b505af1158015610495573d6000803e3d6000fd5b505050505b600783015460608201516104c49185918d91600160281b90046001600160a01b0316906000611492565b861561061f578061014001516001600160a01b03166370a08231336040518263ffffffff1660e01b81526004016104fb9190612217565b602060405180830381865afa158015610518573d6000803e3d6000fd5b505050506040513d601f19601f8201168201806040525081019061053c919061222b565b61012082015261014081015160c082015160405163f866c31960e01b81526001600160a01b039092169163f866c3199161057c918d913391600401612284565b600060405180830381600087803b15801561059657600080fd5b505af11580156105aa573d6000803e3d6000fd5b5050505080610120015160000361061a57336000818152600260209081526040808320600a890154845291829052808320805460ff19166001179055519092916001600160a01b038f16917e058a56ea94653cdf4f152d227ace22d4c00ad99e2a43f58cb7d9e3feb295f29190a3505b6106ce565b610628846113cf565b61014081015160c08201516106449186918e9190600090611492565b61014081015160c08201516005860154604051636b81068560e11b81526001600160a01b038d8116600483015233602483015260448201939093526001600160801b03909116606482015291169063d7020d0a90608401600060405180830381600087803b1580156106b557600080fd5b505af11580156106c9573d6000803e3d6000fd5b505050505b805160c08201510361072c57600a840154600090815260208390526040808220805460ff19169055516001600160a01b03808c1692908e16917f44c58d81365b66dd4b1a7f36c25aa97b8c71c361ee4937adc1a00000227db5dd9190a35b60078301546060820151610758916001600160a01b038d8116923392600160281b9004909116906116ec565b886001600160a01b03168a6001600160a01b03168c6001600160a01b03167fe413a321e8681d831f4dbccbca790d2952b56f977908e45be37335533e00528684606001518560c00151338d6040516107d4949392919093845260208401929092526001600160a01b031660408301521515606082015260800190565b60405180910390a4602c6107e860366113b3565b95509550505050505b9550959350505050565b6000808080806001815b8881101561086457600081815260208c9052604090205460ff16151560011480610844575060008181526001808d0160205260409091205460ff161515145b156108525760009150610864565b8061085c816122be565b915050610805565b508015610884576000806000806000199550955095509550955050610f82565b50610922604051806102400160405280600081526020016000815260200160008152602001600081526020016000815260200160008152602001600081526020016000815260200160008152602001600081526020016000815260200160008152602001600081526020016000815260200160001515815260200160006001600160a01b031681526020016000151581526020016000151581525090565b600060e08201525b878160e001511015610ee15760e0810151600090815260208b9052604090205460ff168061096d575060e0810151600090815260018b01602052604090205460ff165b15610ec9578860008260e00151815260200190815260200160002060009054906101000a90046001600160a01b0316816101e001906001600160a01b031690816001600160a01b03168152505060008b6000836101e001516001600160a01b03166001600160a01b031681526020019081526020016000206040518061014001604052908160008201604051806101000160405290816000820154815260200160018201548152602001600282015481526020016003820160009054906101000a900460ff1660ff1660ff1681526020016003820160019054906101000a900460ff161515151581526020016003820160029054906101000a900460ff161515151581526020016003820160039054906101000a900460ff1615151515815260200160048201548152505081526020016005820160009054906101000a90046001600160801b03166001600160801b03166001600160801b031681526020016005820160109054906101000a90046001600160801b03166001600160801b03166001600160801b031681526020016006820160009054906101000a90046001600160801b03166001600160801b03166001600160801b031681526020016006820160109054906101000a90046001600160801b03166001600160801b03166001600160801b031681526020016007820160009054906101000a900464ffffffffff1664ffffffffff1664ffffffffff1681526020016007820160059054906101000a90046001600160a01b03166001600160a01b03166001600160a01b031681526020016008820160009054906101000a90046001600160a01b03166001600160a01b03166001600160a01b031681526020016009820160009054906101000a90046001600160a01b03166001600160a01b03166001600160a01b03168152602001600a8201548152505090508060000151600001518260a00181815250508060000151602001518260c001818152505080600001516060015160ff168260800181815250508160800151600a610c6491906123bb565b60208301526101e082015160405163b3596f0760e01b81526001600160a01b038a169163b3596f0791610c9a9190600401612217565b602060405180830381865afa158015610cb7573d6000803e3d6000fd5b505050506040513d601f19601f82011682018060405250810190610cdb919061222b565b825260c082015115801590610d03575060e0820151600090815260208c9052604090205460ff165b15610e05578060c001516001600160a01b03166370a082318e6040518263ffffffff1660e01b8152600401610d389190612217565b602060405180830381865afa158015610d55573d6000803e3d6000fd5b505050506040513d601f19601f82011682018060405250810190610d79919061222b565b6040830181905260208301518351600092610d9e9291610d989161174a565b90611756565b610120840151909150610db19082611762565b61012084015260a0830151610dd790610dcb90839061174a565b61016085015190611762565b61016084015260c0830151610dfd90610df190839061174a565b61018085015190611762565b610180840152505b60e0820151600090815260018c01602052604090205460ff1615610ec7578060e001516001600160a01b03166370a082318e6040518263ffffffff1660e01b8152600401610e539190612217565b602060405180830381865afa158015610e70573d6000803e3d6000fd5b505050506040513d601f19601f82011682018060405250810190610e94919061222b565b6060830181905260208301518351610ec092610eb49291610d989161174a565b61014084015190611762565b6101408301525b505b60e08101805190610ed9826122be565b90525061092a565b600081610120015111610ef5576000610f0a565b610120810151610160820151610f0a91611756565b610160820152610120810151610f21576000610f36565b610120810151610180820151610f3691611756565b6101808201819052610120820151610140830151610f539261176e565b610100820181905261012082015161014083015161016084015161018090940151919850965091945090925090505b965096509650965096915050565b6003850154600090606090610100900460ff161580610fb957506003860154610100900460ff16155b15610fd357602d610fca601b6113b3565b915091506107f1565b670de0b6b3a76400008410610fee57602e610fca60326113b3565b6001870154600090158015906110175750600a88015460009081526020879052604090205460ff165b90508061103457602f61102a60336113b3565b92509250506107f1565b8360000361104857603061102a60346113b3565b602c61105460366113b3565b92509250509550959350505050565b6000821580611070575081155b1561107d57506000611105565b8161108b60026127106123dd565b611097906000196123f1565b6110a191906123dd565b8311156110ae60046113b3565b906110d55760405162461bcd60e51b81526004016110cc9190612408565b60405180910390fd5b506127106110e46002826123dd565b6110ee848661241b565b6110f8919061243a565b61110291906123dd565b90505b92915050565b60008060008060008060009054906101000a90046001600160a01b03166001600160a01b031663fca513a86040518163ffffffff1660e01b8152600401602060405180830381865afa158015611165573d6000803e3d6000fd5b505050506040513d601f19601f8201168201806040525081019061118991906121fa565b90506111cb6040518060e00160405280600081526020016000815260200160008152602001600081526020016000815260200160008152602001600081525090565b60405163b3596f0760e01b81526001600160a01b0383169063b3596f07906111f7908d90600401612217565b602060405180830381865afa158015611214573d6000803e3d6000fd5b505050506040513d601f19601f82011682018060405250810190611238919061222b565b6040808301919091525163b3596f0760e01b81526001600160a01b0383169063b3596f079061126b908c90600401612217565b602060405180830381865afa158015611288573d6000803e3d6000fd5b505050506040513d601f19601f820116820180604052508101906112ac919061222b565b606082015260028c015460208201526003808d015460ff90811660c0840152908c01541660a0820181905261132c906112f5906112ea90600a6123bb565b60408401519061174a565b610d9883602001516113268560c00151600a61131191906123bb565b6060870151611320908f61174a565b9061174a565b90611063565b6080820181905287101561139757869350611390816020015161138a6113678460c00151600a61135c91906123bb565b60608601519061174a565b610d988560a00151600a61137b91906123bb565b6040870151611320908b61174a565b9061179f565b92506113a2565b806080015193508792505b50919a909950975050505050505050565b60606111058260368111156113ca576113ca612244565b61184b565b60088101546040805163b1bf962d60e01b815290516000926001600160a01b03169163b1bf962d9160048083019260209291908290030181865afa15801561141b573d6000803e3d6000fd5b505050506040513d601f19601f8201168201806040525081019061143f919061222b565b600583015460078401549192506001600160801b03600160801b820481169291169064ffffffffff16600080611478878786888761194c565b915091506114898787878585611a82565b50505050505050565b6114bd6040518060800160405280600081526020016000815260200160008152602001600081525090565b600586015460088701546040805163b1bf962d60e01b8152905161154a93600160801b90046001600160801b0316926001600160a01b03169163b1bf962d9160048083019260209291908290030181865afa158015611520573d6000803e3d6000fd5b505050506040513d601f19601f82011682018060405250810190611544919061222b565b90611b97565b6060820181905260098701546004808901546040516340e464b960e11b81526001600160a01b038a81169382019390935288831660248201526044810188905260648101879052608481019490945260a484015216906381c8c9729060c4016040805180830381865afa1580156115c5573d6000803e3d6000fd5b505050506040513d601f19601f820116820180604052508101906115e99190612452565b6040830152602082018190526001600160801b03101561160960186113b3565b906116275760405162461bcd60e51b81526004016110cc9190612408565b5060408101516001600160801b03101561164160196113b3565b9061165f5760405162461bcd60e51b81526004016110cc9190612408565b506020818101516040808401516001600160801b03808416600160801b82841681029190911760068d015560058c0154845195865295850192909252848116848401529304909216606082015290516001600160a01b038716917f4063a2df84b66bb796eb32622851d833e57b2c4292900c18f963af8808b13e35919081900360800190a2505050505050565b611744846323b872dd60e01b85858560405160240161170d93929190612284565b60408051601f198184030181529190526020810180516001600160e01b03166001600160e01b031990931692909217909152611c21565b50505050565b6000611102828461241b565b600061110282846123dd565b6000611102828461243a565b6000826000036117815750600019611798565b6117958361178f8685611063565b90611cf8565b90505b9392505050565b60008115156117ae60056113b3565b906117cc5760405162461bcd60e51b81526004016110cc9190612408565b5060006117da6002846123dd565b90506127106117eb826000196123f1565b6117f591906123dd565b84111561180260046113b3565b906118205760405162461bcd60e51b81526004016110cc9190612408565b50828161182f6127108761241b565b611839919061243a565b61184391906123dd565b949350505050565b6060816000036118725750506040805180820190915260018152600360fc1b602082015290565b8160005b811561189c5780611886816122be565b91506118959050600a836123dd565b9150611876565b60008167ffffffffffffffff8111156118b7576118b7612476565b6040519080825280601f01601f1916602001820160405280156118e1576020820181803683370190505b5090505b8415611843576118f66001836123f1565b9150611903600a8661248c565b61190e90603061243a565b60f81b818381518110611923576119236124a0565b60200101906001600160f81b031916908160001a905350611945600a866123dd565b94506118e5565b600685015460009081906001600160801b031685858215611a5c5760006119738488611d94565b905061197f818a611b97565b92506001600160801b0383111561199660156113b3565b906119b45760405162461bcd60e51b81526004016110cc9190612408565b5060058b0180546001600160801b0319166001600160801b0385161790558915611a5a5760068b01546000906119fa90600160801b90046001600160801b031689611dd8565b9050611a06818a611b97565b92506001600160801b03831115611a1d60166113b3565b90611a3b5760405162461bcd60e51b81526004016110cc9190612408565b505060058b0180546001600160801b03808516600160801b0291161790555b505b600799909901805464ffffffffff19164264ffffffffff16179055989650505050505050565b611ab46040518060a0016040528060008152602001600081526020016000815260200160008152602001600081525090565b600486015460808201819052600003611acd5750611b90565b611ad78585611b97565b6020820152611ae68583611b97565b8082526020820151611af89190611de5565b604082018190526080820151611b0e9190611063565b6060820181905215611b8e5760078601546060820151604051637df5bd3b60e01b8152600481019190915260248101859052600160281b9091046001600160a01b031690637df5bd3b90604401600060405180830381600087803b158015611b7557600080fd5b505af1158015611b89573d6000803e3d6000fd5b505050505b505b5050505050565b6000821580611ba4575081155b15611bb157506000611105565b81611bc86002676765c793fa10079d601b1b6123dd565b611bd4906000196123f1565b611bde91906123dd565b831115611beb60046113b3565b90611c095760405162461bcd60e51b81526004016110cc9190612408565b50676765c793fa10079d601b1b6110e46002826123dd565b6000611c76826040518060400160405280602081526020017f5361666545524332303a206c6f772d6c6576656c2063616c6c206661696c6564815250856001600160a01b0316611df19092919063ffffffff16565b805190915015611cf35780806020019051810190611c9491906124b6565b611cf35760405162461bcd60e51b815260206004820152602a60248201527f5361666545524332303a204552433230206f7065726174696f6e20646964206e6044820152691bdd081cdd58d8d9595960b21b60648201526084016110cc565b505050565b6000811515611d0760056113b3565b90611d255760405162461bcd60e51b81526004016110cc9190612408565b506000611d336002846123dd565b9050670de0b6b3a7640000611d4a826000196123f1565b611d5491906123dd565b841115611d6160046113b3565b90611d7f5760405162461bcd60e51b81526004016110cc9190612408565b50828161182f670de0b6b3a76400008761241b565b600080611da84264ffffffffff8516611de5565b9050611843676765c793fa10079d601b1b6301e13380611dc8878561174a565b611dd291906123dd565b90611762565b6000611102838342611e00565b600061110282846123f1565b60606117958484600085611eff565b600080611e148364ffffffffff8616611de5565b905080600003611e3257676765c793fa10079d601b1b915050611798565b6000611e3f6001836123f1565b9050600060028311611e52576000611e5d565b611e5d6002846123f1565b90506000611e6f6301e13380896123dd565b90506000611e7d8280611b97565b90506000611e8b8284611b97565b905060006002611e9f846113208a8a61174a565b611ea991906123dd565b905060006006611ebf8461132089818d8d61174a565b611ec991906123dd565b9050611eef81611dd28481611ede8a8e61174a565b676765c793fa10079d601b1b611dd2565b9c9b505050505050505050505050565b606082471015611f605760405162461bcd60e51b815260206004820152602660248201527f416464726573733a20696e73756666696369656e742062616c616e636520666f6044820152651c8818d85b1b60d21b60648201526084016110cc565b6001600160a01b0385163b611fb75760405162461bcd60e51b815260206004820152601d60248201527f416464726573733a2063616c6c20746f206e6f6e2d636f6e747261637400000060448201526064016110cc565b600080866001600160a01b03168587604051611fd391906124d3565b60006040518083038185875af1925050503d8060008114612010576040519150601f19603f3d011682016040523d82523d6000602084013e612015565b606091505b5091509150612025828286612030565b979650505050505050565b6060831561203f575081611798565b82511561204f5782518084602001fd5b8160405162461bcd60e51b81526004016110cc9190612408565b604051806101e001604052806000815260200160008152602001600081526020016000815260200160008152602001600081526020016000815260200160008152602001600081526020016000815260200160006001600160a01b03168152602001600015158152602001600060018111156120e7576120e7612244565b815260200160008152602001606081525090565b6001600160a01b038116811461211057600080fd5b50565b801515811461211057600080fd5b600080600080600060a0868803121561213957600080fd5b8535612144816120fb565b94506020860135612154816120fb565b93506040860135612164816120fb565b925060608601359150608086013561217b81612113565b809150509295509295909350565b60005b838110156121a457818101518382015260200161218c565b838111156117445750506000910152565b600081518084526121cd816020860160208601612189565b601f01601f19169290920160200192915050565b82815260406020820152600061179560408301846121b5565b60006020828403121561220c57600080fd5b8151611798816120fb565b6001600160a01b0391909116815260200190565b60006020828403121561223d57600080fd5b5051919050565b634e487b7160e01b600052602160045260246000fd5b6001600160a01b0393909316835260208301919091526001600160801b0316604082015260600190565b6001600160a01b039384168152919092166020820152604081019190915260600190565b634e487b7160e01b600052601160045260246000fd5b6000600182016122d0576122d06122a8565b5060010190565b600181815b808511156123125781600019048211156122f8576122f86122a8565b8085161561230557918102915b93841c93908002906122dc565b509250929050565b60008261232957506001611105565b8161233657506000611105565b816001811461234c576002811461235657612372565b6001915050611105565b60ff841115612367576123676122a8565b50506001821b611105565b5060208310610133831016604e8410600b8410161715612395575081810a611105565b61239f83836122d7565b80600019048211156123b3576123b36122a8565b029392505050565b6000611102838361231a565b634e487b7160e01b600052601260045260246000fd5b6000826123ec576123ec6123c7565b500490565b600082821015612403576124036122a8565b500390565b60208152600061110260208301846121b5565b6000816000190483118215151615612435576124356122a8565b500290565b6000821982111561244d5761244d6122a8565b500190565b6000806040838503121561246557600080fd5b505080516020909101519092909150565b634e487b7160e01b600052604160045260246000fd5b60008261249b5761249b6123c7565b500690565b634e487b7160e01b600052603260045260246000fd5b6000602082840312156124c857600080fd5b815161179881612113565b600082516124e5818460208701612189565b919091019291505056fea26469706673582212204647b69e1160bb1ce663ab72235df6148b01950d5c5b763ae0cca323ec4bbbc064736f6c634300080e0033",
  "linkReferences": {},
  "deployedLinkReferences": {}
}