{
  "_format": "hh-sol-artifact-1",
  "contractName": "LendingPoolAddressesProvider",
  "sourceName": "contracts/Pool/LendingPoolAddressesProvider.sol",
  "abi": [
    {
      "inputs": [
        {
          "internalType": "address",
          "name": "main_admin",
          "type": "address"
        },
        {
          "internalType": "address",
          "name": "emergency_admin",
          "type": "address"
        },
        {
          "internalType": "address",
          "name": "oracle",
          "type": "address"
        }
      ],
      "stateMutability": "nonpayable",
      "type": "constructor"
    },
    {
      "anonymous": false,
      "inputs": [
        {
          "indexed": false,
          "internalType": "bytes32",
          "name": "id",
          "type": "bytes32"
        },
        {
          "indexed": true,
          "internalType": "address",
          "name": "newAddress",
          "type": "address"
        }
      ],
      "name": "AddressSet",
      "type": "event"
    },
    {
      "anonymous": false,
      "inputs": [
        {
          "indexed": true,
          "internalType": "address",
          "name": "newAddress",
          "type": "address"
        }
      ],
      "name": "ConfigurationAdminUpdated",
      "type": "event"
    },
    {
      "anonymous": false,
      "inputs": [
        {
          "indexed": false,
          "internalType": "address",
          "name": "dex",
          "type": "address"
        }
      ],
      "name": "DEXUpdated",
      "type": "event"
    },
    {
      "anonymous": false,
      "inputs": [
        {
          "indexed": true,
          "internalType": "address",
          "name": "newAddress",
          "type": "address"
        }
      ],
      "name": "EmergencyAdminUpdated",
      "type": "event"
    },
    {
      "anonymous": false,
      "inputs": [
        {
          "indexed": true,
          "internalType": "address",
          "name": "newAddress",
          "type": "address"
        }
      ],
      "name": "LendingPoolConfiguratorUpdated",
      "type": "event"
    },
    {
      "anonymous": false,
      "inputs": [
        {
          "indexed": false,
          "internalType": "uint256",
          "name": "id",
          "type": "uint256"
        },
        {
          "indexed": false,
          "internalType": "address",
          "name": "pool",
          "type": "address"
        },
        {
          "indexed": false,
          "internalType": "address",
          "name": "lending_pool_configurator_address",
          "type": "address"
        },
        {
          "indexed": false,
          "internalType": "address",
          "name": "lending_pool_cm_address",
          "type": "address"
        }
      ],
      "name": "LendingPoolUpdated",
      "type": "event"
    },
    {
      "anonymous": false,
      "inputs": [
        {
          "indexed": true,
          "internalType": "address",
          "name": "newAddress",
          "type": "address"
        }
      ],
      "name": "LendingRateOracleUpdated",
      "type": "event"
    },
    {
      "anonymous": false,
      "inputs": [
        {
          "indexed": true,
          "internalType": "address",
          "name": "previousOwner",
          "type": "address"
        },
        {
          "indexed": true,
          "internalType": "address",
          "name": "newOwner",
          "type": "address"
        }
      ],
      "name": "OwnershipTransferred",
      "type": "event"
    },
    {
      "anonymous": false,
      "inputs": [
        {
          "indexed": false,
          "internalType": "address",
          "name": "pool_address",
          "type": "address"
        },
        {
          "indexed": false,
          "internalType": "address",
          "name": "configuratorAddress",
          "type": "address"
        },
        {
          "indexed": false,
          "internalType": "address",
          "name": "lending_pool_cm_address",
          "type": "address"
        }
      ],
      "name": "PoolAdded",
      "type": "event"
    },
    {
      "anonymous": false,
      "inputs": [
        {
          "indexed": false,
          "internalType": "address",
          "name": "pool_address",
          "type": "address"
        }
      ],
      "name": "PoolRemoved",
      "type": "event"
    },
    {
      "anonymous": false,
      "inputs": [
        {
          "indexed": true,
          "internalType": "address",
          "name": "newAddress",
          "type": "address"
        }
      ],
      "name": "PriceOracleUpdated",
      "type": "event"
    },
    {
      "inputs": [
        {
          "internalType": "address",
          "name": "pool_address",
          "type": "address"
        },
        {
          "internalType": "address",
          "name": "lending_pool_configurator_address",
          "type": "address"
        },
        {
          "internalType": "address",
          "name": "lending_pool_cm_address",
          "type": "address"
        }
      ],
      "name": "addPool",
      "outputs": [],
      "stateMutability": "nonpayable",
      "type": "function"
    },
    {
      "inputs": [
        {
          "internalType": "bytes32",
          "name": "data",
          "type": "bytes32"
        }
      ],
      "name": "deployAddPool",
      "outputs": [
        {
          "internalType": "address",
          "name": "",
          "type": "address"
        }
      ],
      "stateMutability": "nonpayable",
      "type": "function"
    },
    {
      "inputs": [
        {
          "internalType": "bytes32",
          "name": "id",
          "type": "bytes32"
        }
      ],
      "name": "getAddress",
      "outputs": [
        {
          "internalType": "address",
          "name": "",
          "type": "address"
        }
      ],
      "stateMutability": "view",
      "type": "function"
    },
    {
      "inputs": [],
      "name": "getAllPools",
      "outputs": [
        {
          "internalType": "address[]",
          "name": "",
          "type": "address[]"
        }
      ],
      "stateMutability": "view",
      "type": "function"
    },
    {
      "inputs": [],
      "name": "getDEX",
      "outputs": [
        {
          "internalType": "address",
          "name": "",
          "type": "address"
        }
      ],
      "stateMutability": "view",
      "type": "function"
    },
    {
      "inputs": [],
      "name": "getEmergencyAdmin",
      "outputs": [
        {
          "internalType": "address",
          "name": "",
          "type": "address"
        }
      ],
      "stateMutability": "view",
      "type": "function"
    },
    {
      "inputs": [
        {
          "internalType": "uint256",
          "name": "id",
          "type": "uint256"
        }
      ],
      "name": "getLendingPool",
      "outputs": [
        {
          "internalType": "address",
          "name": "",
          "type": "address"
        },
        {
          "internalType": "bool",
          "name": "",
          "type": "bool"
        }
      ],
      "stateMutability": "view",
      "type": "function"
    },
    {
      "inputs": [
        {
          "internalType": "address",
          "name": "pool",
          "type": "address"
        }
      ],
      "name": "getLendingPoolCollateralManager",
      "outputs": [
        {
          "internalType": "address",
          "name": "",
          "type": "address"
        }
      ],
      "stateMutability": "view",
      "type": "function"
    },
    {
      "inputs": [
        {
          "internalType": "address",
          "name": "pool",
          "type": "address"
        }
      ],
      "name": "getLendingPoolConfigurator",
      "outputs": [
        {
          "internalType": "address",
          "name": "",
          "type": "address"
        }
      ],
      "stateMutability": "view",
      "type": "function"
    },
    {
      "inputs": [],
      "name": "getMainAdmin",
      "outputs": [
        {
          "internalType": "address",
          "name": "",
          "type": "address"
        }
      ],
      "stateMutability": "view",
      "type": "function"
    },
    {
      "inputs": [],
      "name": "getPriceOracle",
      "outputs": [
        {
          "internalType": "address",
          "name": "",
          "type": "address"
        }
      ],
      "stateMutability": "view",
      "type": "function"
    },
    {
      "inputs": [],
      "name": "owner",
      "outputs": [
        {
          "internalType": "address",
          "name": "",
          "type": "address"
        }
      ],
      "stateMutability": "view",
      "type": "function"
    },
    {
      "inputs": [
        {
          "internalType": "address",
          "name": "pool_address",
          "type": "address"
        }
      ],
      "name": "removePool",
      "outputs": [],
      "stateMutability": "nonpayable",
      "type": "function"
    },
    {
      "inputs": [],
      "name": "renounceOwnership",
      "outputs": [],
      "stateMutability": "nonpayable",
      "type": "function"
    },
    {
      "inputs": [
        {
          "internalType": "bytes32",
          "name": "id",
          "type": "bytes32"
        },
        {
          "internalType": "address",
          "name": "newAddress",
          "type": "address"
        }
      ],
      "name": "setAddress",
      "outputs": [],
      "stateMutability": "nonpayable",
      "type": "function"
    },
    {
      "inputs": [
        {
          "internalType": "address",
          "name": "dex",
          "type": "address"
        }
      ],
      "name": "setDEX",
      "outputs": [],
      "stateMutability": "nonpayable",
      "type": "function"
    },
    {
      "inputs": [
        {
          "internalType": "address",
          "name": "emergencyAdmin",
          "type": "address"
        }
      ],
      "name": "setEmergencyAdmin",
      "outputs": [],
      "stateMutability": "nonpayable",
      "type": "function"
    },
    {
      "inputs": [
        {
          "internalType": "uint256",
          "name": "id",
          "type": "uint256"
        },
        {
          "internalType": "address",
          "name": "pool",
          "type": "address"
        },
        {
          "internalType": "address",
          "name": "lending_pool_configurator_address",
          "type": "address"
        },
        {
          "internalType": "address",
          "name": "cm_address",
          "type": "address"
        }
      ],
      "name": "setLendingPool",
      "outputs": [],
      "stateMutability": "nonpayable",
      "type": "function"
    },
    {
      "inputs": [
        {
          "internalType": "address",
          "name": "admin",
          "type": "address"
        }
      ],
      "name": "setMainAdmin",
      "outputs": [],
      "stateMutability": "nonpayable",
      "type": "function"
    },
    {
      "inputs": [
        {
          "internalType": "address",
          "name": "priceOracle",
          "type": "address"
        }
      ],
      "name": "setPriceOracle",
      "outputs": [],
      "stateMutability": "nonpayable",
      "type": "function"
    },
    {
      "inputs": [
        {
          "internalType": "address",
          "name": "newOwner",
          "type": "address"
        }
      ],
      "name": "transferOwnership",
      "outputs": [],
      "stateMutability": "nonpayable",
      "type": "function"
    }
  ],
  "bytecode": "0x60806040523480156200001157600080fd5b506040516200134438038062001344833981016040819052620000349162000164565b6200003f33620000f7565b60016020527f30183854a153274cb6cfaf76977222e940bbd1bb5cce2f2ec6d3b5818aad963c80546001600160a01b039485166001600160a01b0319918216179091557f5d6349683d5b9a7cf2466354ee0f4c33202478c8fcd33e3291d912a0457d9b388054938516938216939093179092556b50524943455f4f5241434c4560a01b6000527f09c42ce2b8743b2d739b046fe6af227cd392ebe6dc7ade0f7795bfe8b5e8d5248054919093169116179055620001ae565b600080546001600160a01b038381166001600160a01b0319831681178455604051919092169283917f8be0079c531659141344cd1fd0a4f28419497f9722a3daafe3b4186f6b6457e09190a35050565b80516001600160a01b03811681146200015f57600080fd5b919050565b6000806000606084860312156200017a57600080fd5b620001858462000147565b9250620001956020850162000147565b9150620001a56040850162000147565b90509250925092565b61118680620001be6000396000f3fe608060405234801561001057600080fd5b50600436106101075760003560e01c806311db7abf1461010c5780631c1951f41461012a57806321f8a7211461015c57806335da33941461016f5780633b7d094614610184578063530e784f146101975780635db7dfbf146101aa5780635dce46b7146101bd57806370feb170146101d0578063715018a6146101d8578063747e301f146101e05780637b66a7231461020c5780638da5cb5b1461021f5780639a3aed3614610227578063aba650981461023a578063ca446dd91461024d578063d88ff1f414610260578063ddcaa9ea14610275578063e0e8d3db1461027d578063f2fde38b146102a9578063fca513a8146102bc575b600080fd5b6101146102c4565b6040516101219190610e79565b60405180910390f35b61013d610138366004610e8d565b6102da565b604080516001600160a01b039093168352901515602083015201610121565b61011461016a366004610e8d565b610358565b61018261017d366004610ebd565b610373565b005b610182610192366004610ebd565b610430565b6101826101a5366004610ebd565b61046b565b6101146101b8366004610e8d565b61051c565b6101826101cb366004610edf565b610556565b610114610652565b61018261066a565b6101146101ee366004610ebd565b6001600160a01b039081166000908152600360205260409020541690565b61018261021a366004610ebd565b6106a5565b610114610758565b610182610235366004610ebd565b610767565b610182610248366004610f2c565b610816565b61018261025b366004610f6f565b610855565b6102686108e6565b6040516101219190610f9b565b610114610a59565b61011461028b366004610ebd565b6001600160a01b039081166000908152600460205260409020541690565b6101826102b7366004610ebd565b610a76565b610114610b13565b60006102d5620888ab60eb1b610358565b905090565b600080600283815481106102f0576102f0610fe8565b9060005260206000200160009054906101000a90046001600160a01b0316600560006002868154811061032557610325610fe8565b60009182526020808320909101546001600160a01b03168352820192909252604001902054909460ff9091169350915050565b6000908152600160205260409020546001600160a01b031690565b3361037c610758565b6001600160a01b0316146103ab5760405162461bcd60e51b81526004016103a290610ffe565b60405180910390fd5b6e22a6a2a923a2a721acafa0a226a4a760891b600090815260016020527f5d6349683d5b9a7cf2466354ee0f4c33202478c8fcd33e3291d912a0457d9b3880546001600160a01b0319166001600160a01b03841690811790915560405190917fe19673fc861bfeb894cf2d6b7662505497ef31c0f489b742db24ee331082691691a250565b33610439610758565b6001600160a01b03161461045f5760405162461bcd60e51b81526004016103a290610ffe565b61046881610b2d565b50565b33610474610758565b6001600160a01b03161461049a5760405162461bcd60e51b81526004016103a290610ffe565b6b50524943455f4f5241434c4560a01b600090815260016020527f09c42ce2b8743b2d739b046fe6af227cd392ebe6dc7ade0f7795bfe8b5e8d52480546001600160a01b0319166001600160a01b03841690811790915560405190917fefe8ab924ca486283a79dc604baa67add51afb82af1db8ac386ebbba643cdffd91a250565b600033610527610758565b6001600160a01b03161461054d5760405162461bcd60e51b81526004016103a290610ffe565b5060005b919050565b3361055f610758565b6001600160a01b0316146105855760405162461bcd60e51b81526004016103a290610ffe565b826002858154811061059957610599610fe8565b600091825260208083209190910180546001600160a01b03199081166001600160a01b0395861617909155868416808452600583526040808520805460ff1916600117905560038452808520805484168988169081179091556004855294819020805490931695871695861790925581518981529283015281019190915260608101919091527ffd571bf21becfba6197960baea80396f6b4a021001033bdef335b8767d5b80b99060800160405180910390a150505050565b60006102d56926a0a4a72fa0a226a4a760b11b610358565b33610673610758565b6001600160a01b0316146106995760405162461bcd60e51b81526004016103a290610ffe565b6106a36000610bdf565b565b336106ae610758565b6001600160a01b0316146106d45760405162461bcd60e51b81526004016103a290610ffe565b620888ab60eb1b60005260016020527f02749bc3fa90a31e71db1190cceb33d23c03975d0ec1fd94cdbd49ec24b8cb8e80546001600160a01b0319166001600160a01b0383161790556040517ff4f735542e91d7c018c02855a6a19fbbcf7f4d7fb006982ebcbb5753408a638b9061074d908390610e79565b60405180910390a150565b6000546001600160a01b031690565b33610770610758565b6001600160a01b0316146107965760405162461bcd60e51b81526004016103a290610ffe565b6926a0a4a72fa0a226a4a760b11b600090815260016020527f30183854a153274cb6cfaf76977222e940bbd1bb5cce2f2ec6d3b5818aad963c80546001600160a01b0319166001600160a01b03841690811790915560405190917fc20a317155a9e7d84e06b716b4b355d47742ab9f8c5d630e7f556553f582430d91a250565b3361081f610758565b6001600160a01b0316146108455760405162461bcd60e51b81526004016103a290610ffe565b610850838383610c2f565b505050565b3361085e610758565b6001600160a01b0316146108845760405162461bcd60e51b81526004016103a290610ffe565b60008281526001602090815260409182902080546001600160a01b0319166001600160a01b03851690811790915591518481527fb37614c7d254ea8d16eb81fa11dddaeb266aa8ba4917980859c7740aff30c691910160405180910390a25050565b6002546060906000805b828110156109625760006002828154811061090d5761090d610fe8565b60009182526020808320909101546001600160a01b0316808352600590915260409091205490915060ff16151560010361094f5761094c836001611049565b92505b508061095a81611061565b9150506108f0565b506000816001600160401b0381111561097d5761097d61107a565b6040519080825280602002602001820160405280156109a6578160200160208202803683370190505b50905060005b83811015610a51576000600282815481106109c9576109c9610fe8565b60009182526020808320909101546001600160a01b0316808352600590915260409091205490915060ff161515600103610a3e57610a08600185611090565b935080838581518110610a1d57610a1d610fe8565b60200260200101906001600160a01b031690816001600160a01b0316815250505b5080610a4981611061565b9150506109ac565b509392505050565b60006102d56e22a6a2a923a2a721acafa0a226a4a760891b610358565b33610a7f610758565b6001600160a01b031614610aa55760405162461bcd60e51b81526004016103a290610ffe565b6001600160a01b038116610b0a5760405162461bcd60e51b815260206004820152602660248201527f4f776e61626c653a206e6577206f776e657220697320746865207a65726f206160448201526564647265737360d01b60648201526084016103a2565b61046881610bdf565b60006102d56b50524943455f4f5241434c4560a01b610358565b6001600160a01b03811660009081526005602052604090205460ff161515600114610b586008610d4f565b90610b765760405162461bcd60e51b81526004016103a291906110a7565b506001600160a01b0381166000908152600560209081526040808320805460ff1916905560039091529081902080546001600160a01b0319169055517f4106dfdaa577573db51c0ca93f766dbedfa0758faa2e7f5bcdb7c142be803c3f9061074d908390610e79565b600080546001600160a01b038381166001600160a01b0319831681178455604051919092169283917f8be0079c531659141344cd1fd0a4f28419497f9722a3daafe3b4186f6b6457e09190a35050565b6001600160a01b03831660009081526005602052604090205460ff16151560011415610c5b6007610d4f565b90610c795760405162461bcd60e51b81526004016103a291906110a7565b506001600160a01b038381166000818152600560209081526040808320805460ff191660019081179091556002805491820190557f405787fa12a823e0f2b7631cc41b3ba8828b3321ca811111fa75cd3aa3bb5ace0180546001600160a01b0319908116861790915560038352818420805489881690831681179091556004845293829020805496881696909116861790558051938452908301919091528101919091527f4c61bab17e59e06eb29c0659ba5f68dc5bc003d57587a7280d98d532d2bf312a9060600160405180910390a1505050565b6060610d6b826036811115610d6657610d666110fc565b610d71565b92915050565b606081600003610d985750506040805180820190915260018152600360fc1b602082015290565b8160005b8115610dc25780610dac81611061565b9150610dbb9050600a83611128565b9150610d9c565b6000816001600160401b03811115610ddc57610ddc61107a565b6040519080825280601f01601f191660200182016040528015610e06576020820181803683370190505b5090505b8415610e7157610e1b600183611090565b9150610e28600a8661113c565b610e33906030611049565b60f81b818381518110610e4857610e48610fe8565b60200101906001600160f81b031916908160001a905350610e6a600a86611128565b9450610e0a565b949350505050565b6001600160a01b0391909116815260200190565b600060208284031215610e9f57600080fd5b5035919050565b80356001600160a01b038116811461055157600080fd5b600060208284031215610ecf57600080fd5b610ed882610ea6565b9392505050565b60008060008060808587031215610ef557600080fd5b84359350610f0560208601610ea6565b9250610f1360408601610ea6565b9150610f2160608601610ea6565b905092959194509250565b600080600060608486031215610f4157600080fd5b610f4a84610ea6565b9250610f5860208501610ea6565b9150610f6660408501610ea6565b90509250925092565b60008060408385031215610f8257600080fd5b82359150610f9260208401610ea6565b90509250929050565b6020808252825182820181905260009190848201906040850190845b81811015610fdc5783516001600160a01b031683529284019291840191600101610fb7565b50909695505050505050565b634e487b7160e01b600052603260045260246000fd5b6020808252818101527f4f776e61626c653a2063616c6c6572206973206e6f7420746865206f776e6572604082015260600190565b634e487b7160e01b600052601160045260246000fd5b6000821982111561105c5761105c611033565b500190565b60006001820161107357611073611033565b5060010190565b634e487b7160e01b600052604160045260246000fd5b6000828210156110a2576110a2611033565b500390565b600060208083528351808285015260005b818110156110d4578581018301518582016040015282016110b8565b818111156110e6576000604083870101525b50601f01601f1916929092016040019392505050565b634e487b7160e01b600052602160045260246000fd5b634e487b7160e01b600052601260045260246000fd5b60008261113757611137611112565b500490565b60008261114b5761114b611112565b50069056fea264697066735822122077656acc28e175fb3d1cb64ae8b4d062638df84099d5fe60946de85bac0d02cf64736f6c634300080e0033",
  "linkReferences": {},
  "deployedLinkReferences": {}
}